:020000040801F1
:100000000004002001020108A1510108A1510108CA
:10001000A1510108A1510108A1510108A1510108F4
:10002000A1510108A1510108A15101080143010892
:10003000A1510108A1510108A1510108A1510108D4
:10004000A1510108A1510108A1510108A1510108C4
:10005000A1510108A1510108A1510108A1510108B4
:10006000A1510108A1510108A1510108A16F010886
:10007000716F0108416F0108116F0108E16E0108FD
:10008000B16E0108816E0108C1B0010881740108D8
:1000900021740108C173010861730108A1510108AD
:1000A000A1510108A1510108A1510108A151010864
:1000B00091530108A1510108A1510108A151010862
:1000C000A1510108A1510108A1510108A151010844
:1000D000A151010831540108A1510108A1510108A1
:1000E000A1510108A1510108A1510108A151010824
:1000F000A1510108A1510108A1510108516E010847
:10010000A1510108A1510108A1510108A151010803
:10011000A1510108A1510108A1510108A1510108F3
:10012000216E0108F16D0108C16D0108916D010892
:10013000616D0108A1510108A1510108A1510108F7
:10014000A1510108A1510108A1510108D16F010875
:10015000316D0108016D0108D16C0108A151010840
:10016000A1510108A1510108A1510108A1510108A3
:10017000A1510108A1510108A1510108A151010893
:10018000A1510108A1510108A1510108A151010883
:10019000A1510108A1510108A1510108A151010873
:1001A000A1510108A1510108A1510108A151010863
:1001B000A1510108A1510108A1510108A151010853
:1001C000A1510108A1510108A1510108A151010843
:1001D000A1510108A1510108A1510108A151010833
:1001E000EE11AA5500000000000000000000000011
:0401F000D1A501088C
:1002000072B6394880F30888384880F3098838483E
:100210004EF60851CEF20001086040F20000CCF228
:1002200000004EF63471CEF200010860BFF34F8F2C
:10023000BFF36F8F40F20000C0F2F0004EF688511D
:10024000CEF200010860BFF34F8FBFF36F8F4FF006
:100250000000E1EE100A4EF63C71CEF2000108609B
:10026000062080F31488BFF36F8F04F0D9FF05F0E8
:10027000C7FD4FF055301F491B4A91423CBF41F822
:10028000040BFAE71C49194A91423CBF41F8040BA0
:10029000FAE71A491A4A1B4B9A423EBF51F8040B1F
:1002A00042F8040BF8E700201749184A91423CBF76
:1002B00041F8040BFAE704F07BFF04F0A9FF144CAB
:1002C000144DAC4203DA54F8041B8847F9E701F0F7
:1002D0006FFD114C114DAC4203DA54F8041B8847F2
:1002E000F9E704F08DBF00000004002000080020A2
:1002F000000001080000002000040020D8E90108E7
:1003000000080020040D0020080D00207C42002081
:10031000F0010108F4010108F4010108F4010108E9
:100320002DE9F04F2DED108AC1F80CD0C3689D4621
:10033000BDEC108ABDE8F08F002383F311882846B6
:10034000A047002004F024FD04F0B2FB00DFFEE72C
:1003500081F0004102E000BF83F0004330B54FEA76
:1003600041044FEA430594EA050F08BF90EA020FE3
:100370001FBF54EA000C55EA020C7FEA645C7FEA76
:10038000655C00F0E2804FEA5454D4EB5555B8BF99
:100390006D420CDD2C4480EA020281EA030382EA0A
:1003A000000083EA010180EA020281EA0303362D9C
:1003B00088BF30BD11F0004F4FEA01314FF4801C6F
:1003C0004CEA113102D0404261EB410113F0004F81
:1003D0004FEA03334CEA133302D0524263EB430338
:1003E00094EA050F00F0A780A4F10104D5F1200ED6
:1003F0000DDB02FA0EFC22FA05F2801841F1000131
:1004000003FA0EF2801843FA05F359410EE0A5F104
:1004100020050EF1200E012A03FA0EFC28BF4CF035
:10042000020C43FA05F3C01851EBE37101F00045EB
:1004300007D54FF0000EDCF1000C7EEB00006EEBF8
:100440000101B1F5801F1BD3B1F5001F0CD3490882
:100450005FEA30004FEA3C0C04F101044FEA4452D9
:1004600012F5800F80F09A80BCF1004F08BF5FEA60
:10047000500C50F1000041EB045141EA050130BD40
:100480005FEA4C0C404141EB010111F4801FA4F1E3
:100490000104E9D191F0000F04BF01460020B1FA38
:1004A00081F308BF2033A3F10B03B3F120020CDA70
:1004B0000C3208DD02F1140CC2F10C0201FA0CF04E
:1004C00021FA02F10CE002F11402D8BFC2F1200CB3
:1004D00001FA02F120FA0CFCDCBF41EA0C01904069
:1004E000E41AA2BF01EB0451294330BD6FEA0404B2
:1004F0001F3C1CDA0C340EDC04F11404C4F120029D
:1005000020FA04F001FA02F340EA030021FA04F3AE
:1005100045EA030130BDC4F10C04C4F1200220FA05
:1005200002F001FA04F340EA0300294630BD21FA43
:1005300004F0294630BD94F0000F83F4801306BF09
:1005400081F480110134013D4EE77FEA645C18BFFD
:100550007FEA655C29D094EA050F08BF90EA020F94
:1005600005D054EA000C04BF1946104630BD91EA8C
:10057000030F1EBF0021002030BD5FEA545C05D18F
:100580004000494128BF41F0004130BD14F58004CE
:100590003CBF01F5801130BD01F0004545F0FE4142
:1005A00041F470014FF0000030BD7FEA645C1ABF77
:1005B000194610467FEA655C1CBF0B46024650EAAE
:1005C000013406BF52EA033591EA030F41F40021DA
:1005D00030BD00BF90F0000F04BF0021704730B560
:1005E0004FF4806404F132044FF000054FF0000135
:1005F00050E700BF90F0000F04BF0021704730B5F6
:100600004FF4806404F1320410F0004548BF4042CA
:100610004FF000013EE700BF42004FEAE2014FEA1F
:1006200031014FEA02701FBF12F07F4393F07F4FFA
:1006300081F06051704792F0000F14BF93F07F4F2C
:10064000704730B54FF4607401F0004521F000416F
:1006500020E700BF50EA010208BF704730B54FF0F5
:1006600000050AE050EA010208BF704730B511F0FA
:10067000004502D5404261EB41014FF4806404F132
:1006800032045FEA915C3FF4DCAE4FF003025FEAB4
:10069000DC0C18BF03325FEADC0C18BF033202EB3C
:1006A000DC02C2F1200300FA03FC20FA02F001FA96
:1006B00003FE40EA0E0021FA02F11444C1E600BF35
:1006C00070B54FF0FF0C4CF4E06C1CEA11541DBFE8
:1006D0001CEA135594EA0C0F95EA0C0F00F0DEF8B3
:1006E0002C4481EA030621EA4C5123EA4C5350EA98
:1006F000013518BF52EA033541F4801143F48013E9
:1007000038D0A0FB02CE4FF00005E1FB02E506F079
:100710000042E0FB03E54FF00006E1FB03569CF0CE
:10072000000F18BF4EF0010EA4F1FF04B6F5007FD4
:1007300064F5407404D25FEA4E0E6D4146EB060646
:1007400042EAC62141EA55514FEAC52040EA5E50CF
:100750004FEACE2EB4F1FD0C88BFBCF5E06F1ED879
:10076000BEF1004F08BF5FEA500E50F1000041EBB0
:10077000045170BD06F0004646EA010140EA02005D
:1007800081EA0301B4EB5C04C2BFD4EB0C0541EA7F
:10079000045170BD41F480114FF0000E013C00F394
:1007A000AB8014F1360FDEBF002001F0004170BDB8
:1007B000C4F10004203C35DA0C341BDC04F11404D1
:1007C000C4F1200500FA05F320FA04F001FA05F25D
:1007D00040EA020001F0004221F0004110EBD3702A
:1007E00021FA04F642EB06015EEA430E08BF20EA56
:1007F000D37070BDC4F10C04C4F1200500FA04F3F9
:1008000020FA05F001FA04F240EA020001F000418A
:1008100010EBD37041F100015EEA430E08BF20EAFD
:10082000D37070BDC4F1200500FA05F24EEA020E45
:1008300020FA04F301FA05F243EA020321FA04F074
:1008400001F0004121FA04F220EA020000EBD3702B
:100850005EEA430E08BF20EAD37070BD94F0000F2B
:100860000FD101F00046400041EB010111F4801F5F
:1008700008BF013CF7D041EA060195F0000F18BF10
:10088000704703F00046520043EB030313F4801F4C
:1008900008BF013DF7D043EA0603704794EA0C0F06
:1008A0000CEA135518BF95EA0C0F0CD050EA41061C
:1008B00018BF52EA4306D1D181EA030101F0004199
:1008C0004FF0000070BD50EA410606BF10461946C1
:1008D00052EA430619D094EA0C0F02D150EA0136CD
:1008E00013D195EA0C0F05D152EA03361CBF10460E
:1008F00019460AD181EA030101F0004141F0FE41AD
:1009000041F470014FF0000070BD41F0FE4141F430
:10091000780170BD70B54FF0FF0C4CF4E06C1CEA30
:1009200011541DBF1CEA135594EA0C0F95EA0C0FE5
:1009300000F0A7F8A4EB050481EA030E52EA0335A0
:100940004FEA013100F088804FEA03334FF08055C1
:1009500045EA131343EA12634FEA022245EA1115EE
:1009600045EA10654FEA00260EF000419D4208BF9F
:10097000964244F1FD0404F5407402D25B084FEA4C
:100980003202B61A65EB03055B084FEA32024FF4F8
:1009900080104FF4002CB6EB020E75EB030E22BF55
:1009A000B61A754640EA0C005B084FEA3202B6EB15
:1009B000020E75EB030E22BFB61A754640EA5C00C4
:1009C0005B084FEA3202B6EB020E75EB030E22BF54
:1009D000B61A754640EA9C005B084FEA3202B6EB55
:1009E000020E75EB030E22BFB61A754640EADC0014
:1009F00055EA060E18D04FEA051545EA16754FEA76
:100A000006164FEAC30343EA52734FEAC2025FEA93
:100A10001C1CC0D111F4801F0BD141EA00014FF022
:100A200000004FF0004CB6E711F4801F04BF0143F3
:100A30000020B4F1FD0C88BFBCF5E06F3FF6AFAE0F
:100A4000B5EB030C04BFB6EB020C5FEA500C50F19F
:100A5000000041EB045170BD0EF0004E4EEA113122
:100A600014EB5C04C2BFD4EB0C0541EA045170BD29
:100A700041F480114FF0000E013C90E645EA060E6D
:100A80008DE60CEA135594EA0C0F08BF95EA0C0F9B
:100A90003FF43BAF94EA0C0F0AD150EA01347FF4E3
:100AA00034AF95EA0C0F7FF425AF104619462CE7BA
:100AB00095EA0C0F06D152EA03353FF4FDAE10461D
:100AC000194622E750EA410618BF52EA43067FF46E
:100AD000C5AE50EA41047FF40DAF52EA43057FF4FE
:100AE000EBAE12E700000000000000000000000074
:100AF0004FF0FF3C06E000BF4FF0010C02E000BFEA
:100B00004FF0010C4DF804CD4FEA410C7FEA6C5CCC
:100B10004FEA430C18BF7FEA6C5C1BD001B050EA6F
:100B2000410C0CBF52EA430C91EA030F02BF90EA5A
:100B3000020F0020704710F1000F91EA030F58BF19
:100B4000994208BF90422CBFD8176FEAE37040F07B
:100B5000010070474FEA410C7FEA6C5C02D150EA19
:100B6000013C07D14FEA430C7FEA6C5CD6D152EAD4
:100B7000033CD3D05DF8040B704700BF8446104699
:100B800062468C461946634600E000BF01B5FFF798
:100B9000B7FF002848BF10F1000F01BD4DF808ED68
:100BA000FFF7F4FF0CBF012000205DF808FB00BF39
:100BB0004DF808EDFFF7EAFF34BF012000205DF893
:100BC00008FB00BF4DF808EDFFF7E0FF94BF0120E0
:100BD00000205DF808FB00BF4DF808EDFFF7CEFFE1
:100BE00094BF012000205DF808FB00BF4DF808ED20
:100BF000FFF7C4FF34BF012000205DF808FB00BFF1
:100C00004FEA410212F5001215D211D56FF4787334
:100C1000B3EB625212D94FEAC12343F0004343EAD7
:100C2000505311F0004F23FA02F018BF40427047B2
:100C30004FF00000704750EA013005D111F000403C
:100C400008BF6FF0004070474FF00000704700BFD2
:100C50004FEA4102B2F1E04324BFB3F5001CDCF1DE
:100C6000FE5C0DD901F0004C4FEAC0024CEA507016
:100C7000B2F1004F40EB830008BF20F00100704745
:100C800011F0804F21D113F13872BCBF01F0004048
:100C9000704741F480114FEA5252C2F11802C2F17A
:100CA000200C10FA0CF320FA02F018BF40F00100FB
:100CB0004FEAC1234FEAD32303FA0CFC40EA0C00AD
:100CC00023FA02F34FEA4303CCE77FEA625307D1EA
:100CD00050EA01331EBF4FF0FE4040F44000704721
:100CE00001F0004040F0FE4040F40000704700BFBB
:100CF00003685A004CBF43F0004323F000431844FC
:100D0000704700BF2DE9F04F83B099B34B1E1746D3
:100D1000054601939846002606EB080404EBD474BC
:100D200064104FEAC40A05EB0A0B5846FFF7E0FFD0
:100D3000019B8146A3420AF1080028440ED0FFF728
:100D4000D7FFB94500F1FF3004D9B4420CD004F10B
:100D5000FF38E1E7B84203D2661CDDE7B945F4D8B5
:100D6000584603B0BDE8F08F4FF0000B584603B073
:100D7000BDE8F08F8B46584603B0BDE8F08F00BF4A
:100D8000012807D0022807D0044B00280CBF1846C2
:100D90000020704702487047024870478D140108D0
:100DA000911401089514010830B5244B83B0044612
:100DB0008D1E7BB3284601A9AFF3008020B30199B3
:100DC0002A46FFF79FFF0546F0B1FFF791FF6B68DA
:100DD000A064012B12D0002B05F1040020DBFFF7EB
:100DE00087FF0023E06423650368002B1CDBFFF70B
:100DF0007FFF00232061184603B030BD002323612C
:100E00000523184603B030BD00232361092318468B
:100E100003B030BD0A490B48091AC9100191CFE748
:100E20000123E0642365DFE7C3F30360FFF7A8FF56
:100E3000002820610CBF09230023DCE7000000002C
:100E4000D4E90108ECE801080368DA0710B50446A4
:100E500006D49B0700F1480009D500F085FC236803
:100E6000590709D51A070ED5DB0613D510BD00F0BA
:100E700073FC23685907F5D404F1D00000F07CFC22
:100E800023681A07F0D404F5A87000F07DFC2368ED
:100E9000DB06EBD404F5E870BDE8104000F0B8BC08
:100EA00003680BB118447047184670470920704713
:100EB000704700BF70B504460D4608E02B6C6361B7
:100EC0000120236921462A469847082808D1204650
:100ED000296CFFF769FF06460028EFD00CF080FC74
:100EE0000728FBD13046296CFFF7E2FF281D00F0F0
:100EF00027FC00BF2DE9F0470C1D064617460FCC16
:100F0000ADF5727D03AD0FC50FCC0FC50FCC0FC56E
:100F100094E80F0002AC4FF0000ED6F80C80D6F823
:100F2000189085E80F003046216CC4F800E0FFF708
:100F30003BFF002F05460CBF09270A277DB1A36B95
:100F400047F010018DE810020120636432463346F9
:100F5000C04778BB28460DF5727DBDE8F087236C4D
:100F6000736121464FF4F0727AA800F081FE336974
:100F700031467AAA38469847889B82468DE8100207
:100F800039466364012032463346C04790B9204653
:100F90007AA94FF4F07200F06BFEBAF1080F06D197
:100FA0003046216CFFF700FF09270546C6E7BAF176
:100FB000070F04D009200DF5727DBDE8F0872846A3
:100FC000216CFFF775FF03A800F0BAFB406C704777
:100FD000F0B5CB6B0B640E1D0F4604460FCEF9B077
:100FE00001AD0FC50FCE0FC50FCE0FC596E80F0090
:100FF0004FF0FF3685E80F00009606E02369214692
:101000006A4698470828054608D120461099FFF7F8
:10101000CBFE0028F2D0092079B0F0BD6846FFF77A
:1010200013FF062DF7D120463946FFF743FF00BFD7
:1010300030B4DD6BC160826119461D64002230BC92
:1010400058E700BF70B5C66843690B6404460D4697
:1010500026B10122FFF74EFF0CF0C2FB03692146C7
:1010600002202A469847072807D0082803D120469F
:101070002946FFF71FFF0CF0B3FB3046296CFFF742
:1010800017FF281D00F05CFBC2681AB1CA6B0A6426
:1010900000222FE79CE700BF704700BF836813B1B1
:1010A000014601201847704700B5042907D8DFE83A
:1010B00001F00309060909000BB90F2A05D902201E
:1010C0005DF804FB01205DF804FB00EB820218468A
:1010D0005368019A13605DF804FB00BF00B585B04A
:1010E0000A4603AB002100930B46FFF7DDFF039890
:1010F00005B05DF804FB00BF00B5042907D8DFE8A0
:1011000001F00309060909000BB90F2A05D90220CD
:101110005DF804FB01205DF804FB019900EB8202FD
:101120000968516018465DF804FB00BF10B584B033
:1011300004AB0C4643F8042D0021009322460B46D5
:10114000FFF7DAFF04B010BDF0B5D36B1364151DC3
:1011500007460E460FCDADF50F7D17AC0FC40FCD72
:101160000FC40FCD0FC495E80F004FF0FF3584E892
:101170000F00169510E016A8FFF7D8FF314616A805
:10118000B847694616AA78B9049B082098470528ED
:1011900004460AD0092807D026996846FFF704FEBE
:1011A0006A460C210028E6D0092416A8FFF74CFE59
:1011B00020460DF50F7DF0BD2DE9F04F0D46C96CB1
:1011C0008BB00C1D096807919046089400F0030944
:1011D0001E46002B64D10902032307918DF8256078
:1011E0008DF824302B6DB9F1020F08BFAC6B13F0F2
:1011F000010343D100F00800C2B2039201932768B3
:10120000002F3DD0022E47D02788B4F802A0043426
:10121000AB6C2AF0010B40460F219B44FFF75EFFA9
:10122000834537D827F001039B4458452CBF002045
:1012300001200AF0010A07F0010747EA4A0ABAF159
:10124000010F43D03AD3BAF1020F1FD1236823F024
:1012500000420292B9F1000F7BD138B1039A002A03
:1012600000F08380029A002A00F0A680002B7ADB2F
:10127000029B03F1010A04EB8A04C0E700230193F7
:10128000022E40DDFFF712FE002842D009200BB0ED
:10129000BDE8F08F0020CCE7D4F804A00834B7E70D
:1012A000022B9FDC0B0CDFB2090402228DF82530E3
:1012B00004EB870407918DF8242093E7B9F1000F20
:1012C00002D0002840F0AD80043498E7B9F1000F57
:1012D00026D1B0B194E80C00D70F9A1CD6D005F1F6
:1012E00058020133069200F09280201DFFF7D8FDCE
:1012F0003A46014606AB2846AFF30080002840F08E
:10130000B58008347BE7404607A900F01DFB0028A4
:10131000BCD1019B002B59D108200BB0BDE8F08F48
:1013200040460D212F6AFFF7D9FE8742E9D1AB6A0B
:101330009C42E6D12046FFF7DBFC0F2102464046E7
:10134000FFF7F4FE40462A460021FFF7EFFE072094
:101350009DE740460D212F6AFFF7C0FE874245D02A
:101360002368002B84DA043482E7029B23B305F15F
:101370005803059604F1040A039FDDF808B0CDF880
:1013800010901E4602E0D9454F4615D050460696AD
:10139000FFF786FD0022014606AB2846AFF300802A
:1013A00007F101090AF1040A0028ECD0029BDDF8DC
:1013B0001090059E9F42D3D140460D21FFF78EFE2F
:1013C000069B2862AC626B62062060E70F214046F4
:1013D000FFF784FE0E2102464046FFF7A7FE404677
:1013E0000F21294AFFF7A2FE072050E7AB6A9C4273
:1013F000B6D104220027A3180299A962EF622A63DA
:101400006B632368BB421FDB0123019330E7404637
:101410000D21FFF763FE2862069B6B62AC6206201B
:1014200035E72046FFF764FC04340646AC632846E3
:10143000AFF3008000283FF429AF404632460F2129
:10144000FFF774FE072022E70846013004EB800016
:10145000FFF74EFC0F2102464046FFF767FE40466D
:1014600039462A46FFF762FE072010E707460D219E
:101470004046FFF733FE022F2862CDD12B46069A55
:1014800043F82C2F6B62C9E700000000002393E6AD
:10149000012391E602238FE6F0B50546C5B0042985
:1014A0000CD8DFE801F056030B300E00012B4FEA99
:1014B000124496B265D0052B00F08480022045B01E
:1014C000F0BD002BFAD1102AF8D82B68DC0600F109
:1014D000EB8022AE3046019200F0A4F9A86B019A8D
:1014E0000023012404FA03F1114203D0016846F8F5
:1014F000231004300133042BF4D1A863304600F0EC
:1015000087F90020DBE7032BD8D1140C97B23B19E5
:10151000102BD3D82B681E0700F1E68022AE304690
:101520007F0000F053F906EBC4027B1EAC6B57B191
:10153000043A214651F8040B42F8040F013B581CB1
:10154000F8D104EB87043046AC6300F01DF90020AD
:10155000B5E7002BB2D1AC6B97B2281D012606FA75
:1015600003F1394203F1010302D021680160043420
:10157000102B00F10400F2D112F4005020D1AC6322
:101580009DE73219102A99D80F2C97D82968C807D7
:101590004FF0000755D422A8019300F0E1F8019B19
:1015A00019E008463746012B00F098800F2CA863FD
:1015B00002D822A800F0D8F817B102A800F0DCF891
:1015C00000207CE73719202F3FF678AF0F2C30D959
:1015D0003746002E45D1A96B3246002EE1D00027B8
:1015E00044A84FEA420C00EBC4000CF1FF328C38E7
:1015F0008E465EF8046B40F8046F013A561CF8D131
:1016000001EB8C00002FCED0102C224644A938BF0D
:10161000102201EBC202A2F5C47201467800043A1E
:1016200001EB800051F8046B42F8046F8142F9D15C
:10163000B9E7102F42D92A68D007A7F11007114641
:1016400010D521F00102052B2A60019328465BD0BA
:1016500021F0030140F8481B00F082F8019B002FA5
:101660004AD02A6851075BD4012B63D00F2C04D8D1
:1016700022A8019300F07CF8019B002FABD002A8B8
:10168000019300F07DF8019BA96BC4F11002002AC0
:10169000A6DC102C224644A838BF102200EBC20260
:1016A000A2F5C4727800BAE723F010032B6005F5A9
:1016B000E870019200F0B6F8019A0AE72968C807B5
:1016C0001DD521F00102284642F0020240F8482BC5
:1016D0000193002700F04CF8019BC9E70430A86390
:1016E00022A800F039F86BE723F008032B6005F51A
:1016F000A87000F06BF811E7012B3FF44CAF0F2CF2
:1017000098BF0027B4D966E742F0020240F8482BA0
:1017100000F02EF8019B002FAAD02A685107A5D50A
:10172000284622F0040240F8D02B019300F028F85C
:10173000019B99E722A8019300F012F8019BA3E70F
:1017400000F1340191E838009C46A6464CF8045D4F
:1017500090E8FF0FE54600BD90EC210B704700BFFD
:1017600080EC210B704700BF90EC200B704700BF4E
:1017700080EC200B704700BFD0EC200B704700BFFF
:10178000C0EC200B704700BFF0EC0201F0EC02113E
:10179000F0EC0221F0EC0231F0EC0241F0EC0251ED
:1017A000F0EC0261F0EC0271F0EC0281F0EC0291DD
:1017B000F0EC02A1F0EC02B1F0EC02C1F0EC02D1CD
:1017C000F0EC02E1F0EC02F1704700BFE0EC020146
:1017D000E0EC0211E0EC0221E0EC0231E0EC02412D
:1017E000E0EC0251E0EC0261E0EC0271E0EC02811D
:1017F000E0EC0291E0EC02A1E0EC02B1E0EC02C10D
:10180000E0EC02D1E0EC02E1E0EC02F1704700BF55
:10181000B0FC0181B0FC0191B0FC01A1B0FC01B1B0
:10182000704700BFA0FC0181A0FC0191A0FC01A1B8
:10183000A0FC01B1704700BFEC4600B52DE9005097
:101840002DE9FF1F4FF000032DE90C0001A9FFF760
:10185000BFFBDDF840E012B0704700BFEC4600B5BA
:101860002DE900502DE9FF1F4FF000032DE90C007A
:1018700001A9FFF7E7FBDDF840E012B0704700BFB9
:10188000EC4600B52DE900502DE9FF1F4FF0000395
:101890002DE90C0001A9FFF7F7FBDDF840E012B0DD
:1018A000704700BFEC4600B52DE900502DE9FF1F41
:1018B0004FF000032DE90C0001ABFFF7B9FBDDF899
:1018C00040E012B0704700BFEC4600B52DE9005073
:1018D0002DE9FF1F4FF000032DE90C0001AAFFF7CF
:1018E00033FCDDF840E012B0704700BF000000009C
:1018F000037A1BB9437A43B9B02070475A1E036874
:1019000002721A020260180E70474268013B10B45E
:10191000437213680321141D01721A0244600260AD
:101920005DF8044B180E704700B585B003AB00217D
:1019300000930C220B46FFF7B7FB039805B05DF848
:1019400004FB00BFF0E700BF2DE9F043064685B079
:101950000D464FF000082846FFF7CAFFB02804469E
:1019600000F0B58020F07F0111F0FF0120D000F0E1
:10197000F003802B7AD0902B36D0A02B49D0B02BFF
:101980005CD0C02B00F0898000F0F803D02B0BD185
:1019900000F00702013242F4002230460121052303
:1019A000FFF77AFD0028D6D0092005B0BDE8F08306
:1019B0000DF10C090B468700CDF8009030460D2242
:1019C000FFF772FBFFB2039BCDF80090043760066F
:1019D0004FF000014CBFDF1BFF1830460B460D22B5
:1019E0000397FFF789FBB6E700F00D030D2BDBD063
:1019F00003AF002100F00F020B4600973046FFF7BF
:101A000053FB002100970B4630460D22FFF774FB75
:101A1000A1E7C34303F007034FF47F621A410107B4
:101A200002F47F624FF0000148BF42F480420B464F
:101A30003046FFF731FD0028B6D18CE7B1284CD0F5
:101A4000B2285DD0B32800F08A8000F0FC03B42BEC
:101A5000AAD000F007020132012142F400220B4615
:101A60003046FFF719FD00289ED174E72846FFF79E
:101A70003FFF24022043B0F5004F95D00401002120
:101A8000A2B20B463046FFF707FD00288CD114F4B4
:101A9000004F18BF4FF001085DE7C62872D0C72875
:101AA0007AD000F0F803C02B00F08980C82800F03D
:101AB000A580C9287FF478AF2846FFF719FF00F00A
:101AC0000F02013200F0F00042EA003265E7B8F19F
:101AD000000F00F08280002067E72846FFF708FF2C
:101AE000024600283FF460AF10F0F0017FF45CAFD5
:101AF00030460B46FFF7D0FC00287FF455AF2AE7AD
:101B000000210DF10C090D220B46CDF80090304656
:101B1000FFF7CAFA2846FFF7EBFE02064FF0020471
:101B20000CD5039B00F07F00A0400344284603939C
:101B3000FFF7DEFE030604F10704F2D4039BCDF8A1
:101B4000009000F07F00A04003F5017300211C18F5
:101B50000D220B4630460394FFF7CEFAFBE62846EB
:101B6000FFF7C6FE00F00F02013200F0F000012185
:101B700042EA00320B463046FFF78EFC00287FF425
:101B800013AFE8E62846FFF7B3FE00F00F0201327C
:101B900000F0F0000321EBE72846FFF7A9FE02461C
:101BA00000283FF401AF10F0F0037FF4FDAE3046A3
:101BB0000421FFF771FC00287FF4F6AECBE600F0BD
:101BC0000F020132032142F420220B463046FFF778
:101BD00063FC00287FF4E8AEBDE603AC41460E226C
:101BE000434600943046FFF75FFA00943046414682
:101BF0000F224346FFF780FA4046D6E62846FFF715
:101C000077FE00F0F00200F00F031032013343EAD8
:101C10000232C2E610B5C36C84B05A6803208DF856
:101C20000C00DC798DF80D4012020833084601A93A
:101C300001920293FFF788FE04B010BD08B5FFF7CC
:101C400081FE806C08BD00BF08B5FFF77BFEC36C4A
:101C5000D87903EB8000083008BD00BF08B50BF051
:101C6000BFFD00BF08B50BF0BBFD00BF00000000CA
:101C7000844641EA000313F003036DD1403A41D397
:101C800051F8043B40F8043B51F8043B40F8043B56
:101C900051F8043B40F8043B51F8043B40F8043B46
:101CA00051F8043B40F8043B51F8043B40F8043B36
:101CB00051F8043B40F8043B51F8043B40F8043B26
:101CC00051F8043B40F8043B51F8043B40F8043B16
:101CD00051F8043B40F8043B51F8043B40F8043B06
:101CE00051F8043B40F8043B51F8043B40F8043BF6
:101CF00051F8043B40F8043B51F8043B40F8043BE6
:101D0000403ABDD2303211D351F8043B40F8043B85
:101D100051F8043B40F8043B51F8043B40F8043BC5
:101D200051F8043B40F8043B103AEDD20C3205D395
:101D300051F8043B40F8043B043AF9D2043208D08D
:101D4000D2071CBF11F8013B00F8013B01D30B88FF
:101D500003806046704700BF082A13D38B078DD0DD
:101D600010F003038AD0C3F10403D21ADB071CBFAF
:101D700011F8013B00F8013B80D331F8023B20F819
:101D8000023B7BE7043AD9D3013A11F8013B00F852
:101D9000013BF9D20B7803704B7843708B788370DA
:101DA00060467047000000000000000000000000D6
:101DB000C44BC54C1A694FF0FF3100222DE9804811
:101DC00019611A61586959615A61186A60F0805046
:101DD00018621A62586A59625A62196C41F080514D
:101DE0001964216841F480712160196F01F4407118
:101DF000B1F5007F93B003D04FF4803119671A67B3
:101E0000B148B24C4268B24EB24D002122F4007289
:101E100042600B4621600A46F058026045F83120C6
:101E20000131102903F10C034FF00004F4D1DFF865
:101E3000E492DFF8E4C2DFF88C8203914FF0FF33C5
:101E4000C9F80830C9F80C30CCF80830CCF80C30A0
:101E5000D8F830C0A04ADFF8C492DFF8C4B2DFF887
:101E6000C4E29E489E4E9F4D9F49DFF8BCA29F4F03
:101E70006FEA5C2C6FEA4C2CC8F830C0D8F850C020
:101E80006FEA5C2C6FEA4C2CC8F850C06FF4004C21
:101E90005460C2F808C0C2F80C904FF6DF0CDFF8AF
:101EA0008C92C2F814C01462DFF884C2C2F8249085
:101EB0006FF0AC49C2F800C0CBF80440DFF874C240
:101EC000CBF8089040F6DF79CBF80CC0CBF8149033
:101ED0004FF0EE4CDFF86092CBF820C0CBF82490A6
:101EE000DFF858C2DFF85892CBF800C0804ACEF82D
:101EF000044049F6CF5CCEF80830CEF80C90DFF8FD
:101F00004492CEF814C0CEF82040CEF82490CEF8FB
:101F10000020784A74604FF6FF7E4FF0553CB36066
:101F2000C6F80CC0C6F814E03462746234606C60A9
:101F3000AB60C5F80CC0C5F814E02C626C622C6074
:101F400044608360C0F80CC0C0F814E004624462CE
:101F500004604C608B60C1F80CC0C1F814E00C62E6
:101F60004C620C6054609360634AC0F80C2800F522
:101F70000060C0F814E0046244620460CAF80440DF
:101F8000CAF80830CAF80CC0CAF814E0CAF82040F1
:101F9000CAF82440CAF80040D8F840507C604FF09E
:101FA0000109A1F5DA3145F0007587F80090C8F80D
:101FB0004050D1F80052F9622D0C2D0445EA090574
:101FC000C1F80052D1F800524C48DFF87CC144609F
:101FD0002D0C2D0445F4606545EA0905C1F8005251
:101FE000C1F84042C1F84442C1F80442C1F8144269
:101FF000C1F80C92C1F81C92D1F80052404A414EEF
:10200000DFF848E125F00105C1F80052D8F840108A
:102010002F4D21F00071C8F8401007F11801B96187
:1020200007F11C01F96107F12001396207F1240170
:10203000796207F12801B96207F10801B960F96016
:1020400007F110013961796105F1540180F80090C0
:102050004162C0F828C001F1480C5439056201F111
:10206000B40A00F10C05284984604461C0F81CE002
:10207000C162C56005614FF0060E4FF0A0412348D4
:10208000234D82F800907561C6F818E0C6F81CC0B0
:10209000C6F820A05460D46194621462D462546281
:1020A00014631481548154669466516586F80090D7
:1020B0007470B47074603472F46034619065D8F8F0
:1020C000402045E0003802400070004038110020F8
:1020D00050D90108E81B0020000002400014024013
:1020E000000C02400010024000180240B01C00200A
:1020F000FF05A416001C024050555555982300209A
:1021000058210020C01B00204600010040DA0108D1
:102110000010014000600240006402400080006442
:1021200000040240000802400020024011A10A0001
:10213000FF7FAAAA50555500994410118FA40AA9EF
:10214000555545540066060016000100003C00404D
:10215000BF48C04DDFF844A342EA0902C8F8402056
:1021600081686B624FF0804242F2CF0C41EA090174
:1021700081604FF0805EC2F828C0D36294615463DE
:10218000D4605460C2F81490C2F800906FF07F02DF
:102190008AF81C2305F11C01CAF880E10022CAF864
:1021A00000E00CA80C932D6000236D60CDE9102396
:1021B000E96129620D940E940F94AC602D616D61FC
:1021C000AC626C6708F09CFA0CA802F001FCA24B10
:1021D000DFF8CCC2A14A1A60A14ACCF80020A14A7B
:1021E0006869D16805908020A863E86604910E981C
:1021F0009D496867A964059885F8514003F110016D
:102200001961596105F1300E04996C6685F8529098
:102210009C616864AC662D64C0F810E04FF6FF0066
:10222000084092499C6001439148D160C168DC60DC
:1022300041F080718F4BC1601B68C5F814E043EA20
:10224000090105F15803C5F818E0EC6485F85090D1
:10225000AB65894BCCF8043005F15C03EB652B666C
:10226000844B4FF0200C19609DF80C30D37782F826
:1022700022C084F3118862B68CF311887F48CDF8B0
:1022800010C002F0CDFB08F00BFA84F311884FF474
:102290008053ABF81A307A4B7A487B4D4FF080026E
:1022A0005A83D8F84410794A41F48071C8F8441030
:1022B000D8F8441041F40071C8F84410D8F844101C
:1022C00041F48061C8F8441041680A4042F4803209
:1022D000A3F5604342F4807242600CA91846ABF546
:1022E000624B03930C948DF834908DF835400E9426
:1022F0000F9410948DF8449007F042FE0CA92846E4
:1023000007F03EFE0CA9584607F03AFE2A69039BE7
:102310005F486049604C22F4E0122A616A6B22F047
:102320001F0242F006026A639A6B22F4401242F4E2
:1023300080129A63DA6822F00702DA601A6922F4DE
:1023400060321A611A6922F4E0121A619A6822F462
:10235000702242F480329A609A6822F4401242F469
:1023600000129A60AA6B22F4401242F48012AA630F
:10237000EA6822F03802EA602A6922F4E0422A611F
:102380002A6922F007022A61EA6822F46062EA60A0
:10239000AA6822F4702242F48032AA60AA6822F469
:1023A000401242F40012AA60DBF8382022F44012F6
:1023B00042F48012CBF83820DBF80C2022F4E072D3
:1023C000CBF80C20DBF8102022F46062CBF8102050
:1023D000DBF8102022F03802CBF81020DBF81020B8
:1023E00022F4E072CBF81020DBF8102022F06052CB
:1023F000CBF81020DBF8082022F4702242F480325F
:10240000CBF80820DBF8082022F440124FF4802E8D
:1024100042F400124FF06009CBF808209C63A863D7
:10242000CBF838108AF81293CAF880E1CAF800E0B5
:102430005A6842F080025A606A6842F080026A601C
:10244000DBF8042042F08002CBF804205A6829E02F
:10245000002004E014240020101300202143010870
:102460008042002000ED00E010DA01080003FA05C8
:10247000F0ED00E0001000E00000022050DA01085A
:10248000000002400023014000210140E030FCFF39
:10249000002C120000B0110000A8120000E100E0C2
:1024A0003013002042F020025A609A6842F0010284
:1024B0009A60AB6843F00103AB60DBF8083043F08F
:1024C0000103CBF8083009F033F8DDF810C08CF3C5
:1024D000118833788C4A7260012B00F0D980F4693E
:1024E000356A2168D5F800E07369108BD1F800C017
:1024F0004FF000082CF01F0C86F8028086F801804F
:10250000C1F800C0D1F800C01CF0010FFAD194F856
:102510000880D4F804C03D2404FA08F4CCF8004044
:10252000DEF8004024F01F04CEF80040DEF8004042
:1025300014F00104FAD195F80880DFF81CE2D5F810
:1025400004C03D2505FA08F57345CCF800509C8180
:102550001C829C8200F07B876C4CA34200F0778742
:1025600055696B4CB4FBF5F4A4B21C81D468558B4F
:10257000928BB3F80080DFF8E4E1B3F80480002C1C
:10258000B46940F4045C45F040050CBF4FF4807022
:102590004FF4887042F0C10204434CF00C0C01204F
:1025A000ADB24FF0000892B2A3F800801D829A826B
:1025B000A3F80CC0C1F80CE048600C600B68022264
:1025C00003430B60327088F31188524B524D1B68E5
:1025D000524EDFF88CE1DFF88CC1514C23F07F4381
:1025E0002B602021DEF800E0DCF8003071832678D3
:1025F00073446B60002E00F0D68603F091FC494BCB
:1026000001241C7007F0E4FC07F0CAFE464A137868
:102610003BB914704548464B4FF4AA61802208F03C
:1026200077F8444B44489FED458ADFF83C91DFF84A
:102630003CA1DFF83CB19FED429A4FF4E871802253
:1026400008F066F83F4B404880224FF4E87108F0EC
:102650005FF8092007F0ACFB012007F0A9FB3B4B1A
:1026600000221B780492B0EE48AAF0EE489A0B2B99
:1026700000F2EC81DFE813F0CE018001AD018901A9
:102680009701E800BF01EA017901EA01EA01AD0121
:102690002F4AF069CDF80CC00C21334605F010F834
:1026A0002C4A306A0C21334605F00AF8D8F8441059
:1026B0007268B36941F01001C020C8F844108AF86C
:1026C0002503108BDDF80CC0CAF884C100F4A051BA
:1026D00043F00063B1F5805FCAF804C0F469B361E8
:1026E000356A2168D5F800E004BF43F42053B36194
:1026F00073694FF0000803F1040CC1F808C0CEF86C
:1027000008C0A6F82480F1E6080800200014014063
:1027100080DE8002107AFF1FE01C002000040240CF
:10272000080D002024200020201D0020A0140020DF
:10273000B1340108D152010840110020000000000E
:1027400000FEFF4651520108100D002054080020E1
:1027500061550108F154010800100140E41B0020FC
:10276000187AFF1F147AFF1F600800205C08002001
:10277000C01D0020BB4BBC4A93ED007ABB4B1278C6
:10278000D3ED007ABA4BBA491B7889EE077A013348
:10279000012A0B7067EE277AFDEEE77ACDED037A1A
:1027A000BDF80C8000F0C382B24B1B78022B00F006
:1027B000CB82032B00F00083012B00F0FD82AE4B97
:1027C000DFEDAE7AD3ED006AAD4BAE4A93ED007A01
:1027D000AD4B92ED006A1B7866EEA77A27EE097A78
:1027E000C7EE277AFDEEE77ACDED037ABDF80C103F
:1027F0005BB1012B1FD19F4A1278022A03BFA34A63
:10280000D2ED007A36EE676A00239FEDA17A984AEE
:1028100066EE097A66EE876A12780092C7EEA67AAB
:1028200009B20FFA88F2FDEEE77ACDED037ABDF931
:102830000C0007F045F805F053FE28B1049B052B6A
:1028400000F340850133049308F00AFF914B9FED9C
:10285000927AD3ED007ADFED916A30EE670A20EECE
:10286000077A77EE877AF4EEE67AF1EE10FAC3EDA6
:10287000007A00F35F818A4B1B78012B19D0C0F0DE
:102880006081022B1BD1834BD3ED006A854BD3EDC6
:10289000007AF4EEE76AF1EE10FA00F37481B1EE1B
:1028A000087A77EEC77AF4EEE76AF1EE10FA00F1F3
:1028B000E6817D4B1B6913F4006400F046817A4B7E
:1028C0001A69540540F12F81774B1B69D80400F138
:1028D0000F8108F0FDFED9ED006A744B9FED746A1C
:1028E000D3ED007A9FED737A734B70EE665A30EE3B
:1028F000670A25EE866A93ED005A6C4B20EE070AB4
:1029000036EE867A77EE807AB4EEC57AF1EE10FA7A
:1029100089ED007AC3ED007A00F39F80674B674C26
:102920001B78032B7FF4A3AE604A92ED007A644AD1
:10293000D2ED007AB4EEE77AF1EE10FA7FF597AEB9
:10294000604B604A1B68590740F1C88108231B0788
:1029500000F1C884594B1B7889E65B4A0B601278FA
:102960000AB107F0A5F903F0DBFA4FF4FA6002F0C0
:102970003FFB02F04DFE67E7544B554A1B68126857
:102980005248591C934201605BDC52484FF47A7103
:1029900002F006FB002800F0E1804F4B4E4A1B6816
:1029A0000133136050E74D4A4D4C0123032013704F
:1029B00007F0FEF94A4B4B4A1B6882ED008A092B4F
:1029C00040F282814FF47A7002F012FB02F020FE96
:1029D0003AE7454B1B78002BC7D1444A434912685C
:1029E000052ABADC01324FF4FA600A6002F000FBFB
:1029F00002F00EFE28E7324B99ED007AD3ED007A13
:102A0000B4EEE77AF1EE10FA40F1C180022003F053
:102A10007FF819E702F0FCFD294B99ED007AD3ED20
:102A2000007AB4EEE77AF1EE10FA0AD40E4B1B7876
:102A3000022B00F07181032B00F04381012B00F089
:102A40003C810121022002F09BFEFDE60D2003F0F7
:102A50005FF8642002F0CCFAF6E6082003F058F89C
:102A60005CE700BF5008002055080020901D0020A2
:102A7000941C00203C1D0020B0410020DB0FC94108
:102A8000401D0020881D002048080020081D00204F
:102A9000DB0F4941181D0020CDCC4C3D0000A04269
:102AA000380800203C0800200004024028080020CC
:102AB000CDCC4C3E0AD7A33C04080020540800208B
:102AC0004C080020101D0020FC1C00200C0D0020D4
:102AD0002C08002064080020EC1C00209C0800202A
:102AE00038130020B4080020041D0020E00E002050
:102AF00008F07EFD994B9FED9A7AD3ED007ADFEDD9
:102B0000996A30EE670A20EE077A77EE877AF4EE5C
:102B1000E67AF1EE10FAC3ED007A7FF7DAAE132011
:102B200002F0F6FFD5E64FF480525A83142002F0EB
:102B3000EFFFC9E68C4A01230320137007F038F930
:102B400099E68A4B80225A83B9E6884B80225A83C1
:102B5000122002F0DDFF864B1C70B0E6854B1B781F
:102B6000002B3FF407AE072002F0D2FF202007F031
:102B70001FF9212007F01CF9222007F019F9232062
:102B800007F016F960E6794B80221A8391E6764ABF
:102B9000794C01230320137007F00AF902F038FD85
:102BA000764B4FF400521A8323695E0706D44FF424
:102BB0007A7002F01DFA23695D07F8D508F098F9DC
:102BC0006E4BDFED6FAA9FED6FDADFED6FCA9FED01
:102BD0006FCADFED6FBA4FF480421A8305F008FD2B
:102BE000B0EE6ABA8AED008A4DF2F6241BE0F4EEEC
:102BF00066AAF1EE10FA48BFF0EE66AAD9ED000A17
:102C0000644DDFED638A60EEAB0AF7EE00DACDEEDD
:102C1000A00A002020EEAA0A60EE880A05F058FDFE
:102C2000013C00F0958108F053FD5B4889ED000AF6
:102C30000521584D02F0B4F928BB05F091FC9BED3D
:102C4000017ADBED027A77EE277AB1EE047A37EE7D
:102C5000877A2BEE0DBA27EE0C7A67EEEC7A7AEED5
:102C600087AAB0EE087AF4EEC7AAF1EE10FAF8EEF1
:102C7000086A3BEE27BABADDF0EE47AABEE73B4B47
:102C800080225A8315E695ED000ADFED417A60EE69
:102C9000277AB7EE000A80EE270A00200A2420EEE9
:102CA000080AF0EE400A05F013FD344B4FF4804261
:102CB00020465A8302F02CFFC6E5384B1B68002BD8
:102CC0002EDD02F045FFBFE5354B1878354B1978FE
:102CD00003F0FEFD23680133236073E643F0040331
:102CE0001360314B02250D201D7007F061F8237829
:102CF0000B2B3FF6BCAC012101FA03F340F6163270
:102D00001A40002A7FF426AE13F0610F3FF41FAE85
:102D1000284602F035FD1DE608F04AF80028D0D11B
:102D200002F076FC4FF47A7002F062F98CE51F4BEA
:102D30001E4A1B68002B40F3E382013B13601C4BCF
:102D40001B78022B7FF435AD1A4B1A4A1B78002BE7
:102D50003FF435AD0023137031E500BF141D002092
:102D6000CDCCCC3D000050429C0800200000024029
:102D700038080020A41D0020000C0240000802407A
:102D800000000000A4707D3F0AD7233C609D113AEB
:102D9000ABAA2A3F60080020B8080020901C002041
:102DA000041D002000080020E91C00203408002039
:102DB0003C1D0020E51D0020CC4BCC4A1B78002B8D
:102DC0003FF4FDACCA4BCDF82080DB780393C84BB1
:102DD000CDF824909B780593C64B01270024D3EDB2
:102DE000008A012F4FF000031370A0461E462546AF
:102DF00000F07282059B002B70D001240223BE4A92
:102E000002EB8303BA4A125D002A67D0D3ED007A41
:102E1000C7EEA87A023617EE900AFDF7FDFB41ECEB
:102E2000100B41EC1B0B08F0D3FD53EC102B40466C
:102E3000CDE90623FDF7F0FBDDE90623FDF78EFA69
:102E4000B0EE4B0AF0EE6B0A8046894608F068FD4A
:102E500053EC102B2846CDE90623FDF7DDFBDDE919
:102E60000623FDF77BFAA44B03EB8404D4ED007A30
:102E7000C7EEA87ACDE9060117EE900AFDF7CCFB64
:102E800041EC100B41EC1B0B08F0A2FD53EC102B96
:102E900040464946CDE90A23FDF7DAFEFDF7BCFBC3
:102EA000DDE90A23FDF75AFAFDF7D2FEB0EE4B0A30
:102EB000F0EE6B0A804608F033FD53EC102BDDE991
:102EC0000601CDE90A23FDF7C3FEFDF7A5FBDDE909
:102ED0000A23FDF743FAFDF7BBFE0546022F40F03B
:102EE000F7812C463546022D4646DDF82490DDF864
:102EF00020807FF764AC3046FDF78EFB0646204607
:102F00000F46FDF789FB47EC106B41EC110B08F005
:102F1000B7FD7A4B186855EC104BFDF77DFB024668
:102F20000B4620462946FDF717FA724B04461868EF
:102F30000D46FDF771FB02460B4620462946FDF77C
:102F4000BFFBFDF785FE6E4B186006F069FF36E4A7
:102F500095ED000A20EE280A20468DEE800A20EE2C
:102F60000A0AF0EE400A05F0B3FBF0EE087AF4EE40
:102F7000E7AAF1EE10FA7FDAF8EE087AF4EEE7AAA3
:102F8000F1EE10FA78D9CAEE8BAA5E4B1520A04656
:102F900041F28837C3ED00AA06F00AFFCDED0C9A86
:102FA000CDED0D9A5848052101F0FAFF0CAC012532
:102FB000064678BB05F0D4FADBED016ADBED027A58
:102FC00094ED007A76EEA77A012D77EE677AB7EE68
:102FD000006ABFEE000A3046E4EC017A00F0968108
:102FE000D9ED000A9AED007A60EEA87A30EE470A31
:102FF000C6EE270A20EE200A60EE880A05F068FB7C
:10300000022D09D04048052101F0CAFF01350646CE
:103010000028CFD04FF00A08013FC3D1DFED3B7A43
:1030200099ED000A3A4C3B4D20EE270AF7EE008A54
:1030300088EE800A384620EE080AF0EE400A05F0D5
:1030400047FBDDED0D6A9DED0C7ADFED337A9FEDE8
:10305000336A36EEC77AC7EE277AC8EEA77AF4EE5F
:10306000C67AF1EE10FAC4ED007A0CD50F202C4B85
:103070004FF480425A831DE6CAEE8BAA214B0E24E0
:10308000C3ED00AA11E69FED277AF4EEC77AF1EEC0
:1030900010FAEBDCB8F1000F40F08381162006F047
:1030A00087FE184BD4ED007AD3ED006A9FED1E7AAF
:1030B0001E4BDFED1F8AC6EEA76A1920444667EE55
:1030C000877AC3ED007A27EEA67A1A4B83ED007A51
:1030D00006F06EFE07F00CFF114B4FF480421A838E
:1030E00008F0F6FA85ED000A3FE000BFE51D00207C
:1030F000781D0020B0410020681D0020F81C002031
:10310000081D002074080020B8080020ABAA2A3F40
:103110009008002060080020B0338E3EBD37863511
:10312000000802406F12833A00007A449808002099
:1031300000A48C46E01D00200000000005F010FAFD
:1031400007EE904AF8EEE70AF0EE087A60EEA70A7A
:103150001FED070AC0EEA80A0134B0EE401A05F0D0
:10316000BFFB44F252639C420ED0BD48052101F0E2
:1031700017FF05460028E1D00A24BA4B4FF48042DD
:103180005A8320465A8395E508F0A2FADFEDB68A05
:10319000B64F9FEDB7BA89ED000AA8462C4608F055
:1031A00097FA40F2DC5689ED000A0BE005F0D8F9F9
:1031B000B0EE680AF0EE080A9FEDAB1A05F090FB3E
:1031C000013E06D0A648052101F0EAFE0028EDD018
:1031D0000A2408F07DFAA74B89ED000A05EB4505A6
:1031E00003EB850508269E48052101F0D9FE00283D
:1031F000C2D105F0B5F9B0EE680AF0EE080A9FED0D
:103200009A1A05F06DFB9C48294630F8023B0A6883
:10321000B842134441F8043BF7D1013EE3D108F131
:103220000108B8F17E0F00F08580002CA5D108F0D0
:103230004FFA07EE908AF8EEE7AADFED907A904D0C
:1032400089ED000A6AEEA77AB3EE027A77EEA77AE2
:1032500085FB0823C7EE87AA4FEAE875C5EBA305EF
:1032600005EBC505A8EB4505F4EE6A8AF1EE10FA08
:1032700025D026461CE005F073F907EE906AF8EEBB
:10328000E77AB7EE000AC7EE8B7A0136F0EE080A4D
:1032900030EE670A6AEEA77A28EE800A9FED721A6E
:1032A00030EE270A05F01CFB40F2DC539E4206D0AC
:1032B0006B48052101F074FE0028DCD00A24F0EEF2
:1032C0006A8A6CE702F0A4F900230493FFF7BCBA02
:1032D0000137012F7FF48EAD039B002BF8D0002423
:1032E00003238CE50120014602F04AFA01231A4625
:1032F00009200CA98DF8303006F022FDFFF72ABB1B
:103300000420014602F03CFAFFF74EBA99ED000A9C
:103310009AED007A20EE280AF7EE007A87EE800A0E
:10332000304677EE277A60EE080A20EE270A05F08D
:10333000CFF967E6002C7FF420AF4E48041D00F162
:10334000D80554F8043C4F4A82FB03121A44DB1799
:10335000C3EB621344F8043C42684A49836881FB2A
:1033600002611144D217C2EB61124649426081FBEF
:1033700003611944DB17C3EB611383600C30A8426F
:1033800004F10C04DDD1374B4FF480425A831820EE
:103390005A8306F00DFD06F0E3FE02F039F9FFF75F
:1033A00050BB404663E6207081F31188364B3A707B
:1033B0004FF48001B022354C83F813234FF4002ED4
:1033C0004FF480164FF40015C3F880E1C3F800E015
:1033D00083F81423C3F880611E6083F81523C3F8B3
:1033E00080511D6083F81623C3F880111960216C89
:1033F000FB6A274A7A6041F00071216418605968BD
:10340000C80709D40121082001F062FDFB6A214AA6
:103410005968C907F6D5526851681F481268D961C2
:1034200003211A6000225861397082F311881B4B06
:103430001B484FF41471812207F06AF9194B1A489E
:103440004FF4E871872207F063F9FFF7D6B85569A2
:10345000164CB4FBF5F4A4B21C81FFF787B800BF8B
:10346000B80800200008024000000000AE1D002047
:103470000080BB4480200020A81D0020DB0F4940B5
:10348000398EE3389324499200E100E0003802408D
:1034900070DA0108B01C00205B8701003160010870
:1034A000E80E002081770108F019002000BD010519
:1034B000BB4DBC4B6A6D9969936BBB482DE9804845
:1034C00023F4002388618DB0936343F6982001F0C4
:1034D0008FFD202080F311882F78B44B6B60012F73
:1034E0004FF00003EB602B616B61AB616C6D00F022
:1034F0006A860DF1180802232B70002383F31188CC
:103500006A6DAB4E936B43F400239363202383F3E4
:1035100011884FF0FF324146A64801F001FD00231B
:1035200083F31188002840F06A85069D002D00F085
:1035300066852978044603278C4280F28A802A19FE
:10354000631C52789C18A142C0F2508405EB030919
:1035500009F1010B002AEFD099F801A0BAF11B0F75
:1035600000F2508401A353F82AF000BF3935010856
:103570001B3C0108693C010839350108933D0108ED
:10358000653B01083935010839350108CB3C010894
:103590003935010897390108393501081939010809
:1035A00043380108B7380108B7380108DF36010889
:1035B00039350108393501087337010877360108B4
:1035C000DD3501082B390108553A0108C9370108D2
:1035D000FF3901080D3B0108B53A0108052A40F002
:1035E0009D84754B1A78002AA6D09BF801903078FC
:1035F000484502D1B9F1000F9ED19BF802309BF8EB
:10360000042001939BF803A0029207F0F1FA00282E
:1036100000F06C859DF8043090F800E0B0F804C02C
:10362000037209F03F0343F4A8630EF0CF0263F383
:103630000A0C67F303029DF8083080F809A0837232
:10364000A0F804C0027007F043FB29788C42FFF613
:1036500076AFA1420AD0307804210022022306F07E
:1036600007FC564B554A1B680133136029465448E2
:1036700003F04EF94AE7032A40F010844E4B1A78C3
:10368000002A3FF459AF9BF8019032784A4503D1A4
:10369000B9F1000F7FF450AF9BF802A01AF1000AB5
:1036A00018BF4FF0010A07F0A3FA002800F079854F
:1036B0000278B0F804E080F808A009F03F0343F472
:1036C000A06363F30A0E02F0CF02012363F3030247
:1036D000A0F804E0027007F0FBFA29782CE7022A30
:1036E00040F0C0839BF801A03278924502D0BAF135
:1036F000000F1CD1334B197801F0FF0E002940F068
:10370000B98405208DF81920014610228DF81A0081
:1037100040468DF818708DF81CE08DF81B2002F0E3
:10372000F7FB9BF801A03278924500F0FC80002A5C
:1037300000F0F98007F05CFAA0B10178B0F804E07D
:103740000AF03F0343F4806301F0CF0163F30A0EF4
:103750006FF30301A0F804E0017007F0B9FA002844
:1037600040F0E18099F801308DF81C303278102358
:103770003FE1022A00F0578330788DF8187001215C
:103780008DF81C2013238DF819008DF81A1040466F
:1037900005218DF81B3002F0BBFB2978CCE600BF79
:1037A000582100201424002090DA010880DA010852
:1037B000041D0020B4250020FC1C00207C200020DB
:1037C0008C240020AC4100200C2A40F09F83B74B92
:1037D0001A78002A3FF4B0AE9BF801903078484543
:1037E00003D1B9F1000F7FF4A7AE9BF80230DBF8EC
:1037F000042001930292BBF808A007F0F9F90146F2
:10380000002800F08184029A90F800E0B0F804C02B
:10381000826009F03F03A0F80CA043F4C0630EF0EF
:10382000CF024FF0070E63F30A0C6EF303029DF80C
:1038300004308B73A1F804C00A7007F049FA2978A4
:103840007AE60A2A40F08683994BDBF802A01A68D0
:10385000924500F0D983954B1A78002A3FF46CAE5C
:10386000DBF806309BF80190019307F0C1F9D8B15D
:1038700090F800E0B0F804C0019BC0F808A009F07F
:103880003F0141F450710EF0CF0E4FF0080961F383
:103890000A0C69F3030EC360A0F804C080F800E0CE
:1038A00007F016FA00283ED19BF801308DF81C3045
:1038B00032780D239DE0022A40F0F8829BF8012027
:1038C0003078824200F06783002A00F06483774BEF
:1038D0001B78002B3FF430AE28B3019207F088F933
:1038E000019A90B10178B0F804E002F03F0242EA98
:1038F0008A1A01F0CF026AF30A0E6FF30302A0F8EE
:1039000004E0027007F0E4F968B999F801308DF825
:103910001C3032780E236CE006F0CAF9634B1B783A
:10392000002B40F01F83297806E6082A40F0DE824B
:103930005E4B1A78002A3FF4FFAD9BF801A0327865
:10394000524503D1BAF1000F7FF4F6ADDBF8043035
:103950009BF80290019307F04BF90246002800F013
:10396000E183019B01788360B0F804E080F80C905B
:103970000AF03F0343F4B06301F0CF014FF0040CB1
:103980006CF3030163F30A0E1170A2F804E007F070
:103990009FF92978D0E5042A40F0C8829BF80110ED
:1039A0003278914200D089B909218DF818108DF82C
:1039B0001920BBF80220ADF81A200421404602F07D
:1039C000A7FA9BF8011032789142ACD0002AAAD015
:1039D000364B1A78002AA6D00A20BBF8022004F041
:1039E000FFFC00289FD19BF8013032788DF81C3005
:1039F0000A2340468DF818708DF81A702BE1022AC0
:103A000040F3F482294B187800283FF495AD9BF8D9
:103A100001903078814503D1B9F1000F7FF48CAD6E
:103A2000033A5FFA82FABAF1070F9BF8021040F2EC
:103A3000F98219238DF81900052140468DF8187078
:103A40008DF81A708DF81C908DF81B3002F060FA1A
:103A5000297871E5082A40F05182144B1A78002A1F
:103A60003FF46AAD9BF801A03278524503D1BAF118
:103A7000000F7FF461ADDBF804309BF802900193F6
:103A800007F0B6F80246002800F04583019B017854
:103A900083600AF03F03B0F804E080F80C9043F430
:103AA000B86301F0CF014FF0050C69E7FC1C002062
:103AB000E01C00200C2A40F00982CF4B1A78002A23
:103AC0003FF43AAD9BF801903078484503D1B9F105
:103AD000000F7FF431AD9BF80230DBF80420019336
:103AE0000292BBF808A007F083F80146002800F016
:103AF0005F83029A90F800E0826009F03F03B0F81B
:103B000004C0A0F80CA043F4D86388E60C2A40F067
:103B1000D581B94B1A78002A3FF40EAD9BF801907D
:103B20003078484503D1B9F1000F7FF405AD9BF81B
:103B30000230DBF8042001930292BBF808A007F0E2
:103B400057F80146002800F0D882029A90F800E069
:103B5000826009F03F03B0F804C0A0F80CA043F461
:103B6000D0635CE6082A40F085819BF801903278AA
:103B7000914500F02582B9F1000F00F021829E4BA3
:103B8000187800283FF4D8AC002A3FF4D5ACBBF934
:103B900004C0CDF80CC0BBF906109BF802300291AE
:103BA00001939BF803A007F023F8019B0299DDF82D
:103BB0000CC0F0B190F800E0A0F808C009F03F098F
:103BC000B0F804C041810EF0CF0E49F4A0714FF05F
:103BD000060961F30A0C69F3030E037380F80DA064
:103BE000A0F804C080F800E007F072F800287FF425
:103BF0009AAE9BF8011033788DF81C1005221146FF
:103C000040468DF818708DF81A708DF81B208DF8CD
:103C1000193002F07DF929788EE4032A07BF9BF85A
:103C200002909BF801A04FF002094FF0000A4946AC
:103C3000042001F0A5FD5046494602F049FE002847
:103C40007FF471AE32788DF81C008DF81870012366
:103C50008DF81A70404605218DF819208DF81B301B
:103C600002F056F9297867E4634B1B78002B3FF488
:103C700063AC624B4FF0000983F8009006F0B8FF88
:103C800080B10278818802F0CF024FF0800E69F394
:103C900003026EF30A010270818007F019F8002810
:103CA0007FF441AE31788DF81870022200238DF830
:103CB0001910404605218DF81A708DF81B208DF8DB
:103CC0001C3002F025F9297836E4042A40F00681F8
:103CD0009BF801903278914502D0B9F1000F2FD1B5
:103CE000BBF8022031788DF81910D2B210464FF08F
:103CF000070C0023ADF81A2005A907AA8DF818C0F3
:103D0000059303F0CDFD002840F0BE813C4BBBF88D
:103D1000022018788DF81C20022108228DF8190045
:103D20008DF81A10404605218DF818708DF81B206B
:103D300002F0EEF89BF80190327891453FF4F3AD34
:103D4000002A3FF4F0ADBBF802A006F051FFC8B165
:103D500090F800E0B0F804C080F808A009F03F0235
:103D600042F4007262F30A0C0EF0CF0E012262F3ED
:103D7000030EA0F804C080F800E006F0A9FF0028B8
:103D80007FF4D1ADBBF802308DF81C3032780823B7
:103D90002FE6032A40F321819BF8013030788342DB
:103DA000A2F1040A48D0002B46D0134A1278002A08
:103DB0003FF4C2AB00283FF4B6ADBAF1070FBBF831
:103DC000029040F3BF8131788DF81910042305214A
:103DD00040468DF818708DF81A708DF81C908DF88B
:103DE0001B3002F095F82978FFF7A6BB3078042144
:103DF0000022012333E400BFFC1C0020941C00209F
:103E0000041D002031788DF819100023404605214B
:103E10008DF818708DF81BA08DF81C208DF81A30C5
:103E200002F076F87FE59BF80130C24A003318BFF4
:103E300001231370FFF780BBBBF802000BF10401F4
:103E4000C0B2524603F064FF002800F02381B94B52
:103E50001A78002A3FF467AD9BF80130307883422E
:103E6000A8D160E530788DF8187001218DF81C20FC
:103E7000102388E4052319468DF81C208DF81B308B
:103E800032788DF81870012340468DF819208DF88E
:103E90001A3002F03DF82978FFF74EBB30788DF8E4
:103EA000187001218DF81C2014236CE430788DF8F3
:103EB000187001218DF81C200E2364E430788DF8F1
:103EC000187001218DF81C201A235CE430788DF8DD
:103ED000187001218DF81C201B2354E430788DF8D4
:103EE000187001218DF81C2008234CE430788DF8DF
:103EF000187001218DF81C20162344E430788DF8C9
:103F0000187001218DF81C2017233CE430788DF8BF
:103F1000187001218DF81C20182334E430788DF8B6
:103F2000187001218DF81C2015232CE431788DF8B0
:103F300019100A230122052140468DF818708DF8CA
:103F40001A208DF81B308DF81C3001F0E1FF297824
:103F5000FFF7F2BA30788DF8187001218DF81C2027
:103F60000D2310E406F044FE80B10278818802F04F
:103F7000CF024FF4407E6FF303026EF30A0102702A
:103F8000818006F0A5FE00287FF4CDAC31788DF855
:103F900018700C228AE6BAF10F0F40F08F8006F0FD
:103FA000FFF9002840F08F80624B1A78002A3FF416
:103FB000BAAC9BF80120307882427FF48DACB2E439
:103FC0009BF803109BF80200BBF90420BBF90630F4
:103FD00005F0FEFC2978FFF7AFBA30788DF818703D
:103FE00001218DF81C200423FFF7CDBB30788DF81C
:103FF000187001218DF81C201923FFF7C4BB642021
:1040000000F0F6FFFFF782BADBF806005A6890422C
:104010007FF421AC9BF80130337005F049FE29781C
:10402000FFF78ABA019106F0E3FD019903460028E3
:1040300000F0C580027801728088019309F03F0189
:1040400041F4C86161F30A0002F0CF020AF10101F4
:1040500061F3030298800BF103011A7003F1090068
:104060005246FDF705FE019B184606F031FE297801
:10407000FFF762BA304B1A68304B1A60304B1A6047
:1040800005F0CEFEFFF74DBB05994046043101F027
:104090003FFF4FE6BBF8022030788DF81C2002214C
:1040A00004228DF819008DF81A10404605218DF86C
:1040B00018708DF81B2001F02BFFC8E606F050F8B1
:1040C00000283FF471AF042196F800E08DF81C0041
:1040D0000F228DF81A10404605218DF818708DF8C2
:1040E00019E08DF81B2001F013FF5DE79BF801300C
:1040F0008DF81C30327815237BE49BF801308DF865
:104100001C3032781A2374E49BF801308DF81C308F
:10411000327818236DE49BF801308DF81C3032782A
:10412000172366E49BF801308DF81C303278162393
:104130005FE400BFFC1C0020881D0020601D0020E3
:10414000081D0020019306F053FD019B844628B30F
:10415000017880F80890BCF804E0CDF804C003F0C2
:104160003F0040F4807001F0CF020AF1010160F3DA
:104170000A0E61F303028CF80020ACF804E00CF1A5
:10418000090052460BF10401FDF772FDDDF804C091
:10419000604606F09DFD00287FF4C5ABBBF8029099
:1041A00011E69BF801308DF81C303278142320E49E
:1041B0009BF801308DF81C3032781B2319E49BF8F2
:1041C0000190307835E4444A4449566BDFF820A129
:1041D000DFF8209146F08006566356694FF0080ECE
:1041E0004FF4341C4FF0E00B46F080064FF0C0084F
:1041F0005661536181F843B3C1F888E1C1F808E022
:10420000C4F80CA0C4F800982B66C4F8003EC4F8AB
:104210000080C4F838C000F0FBFE27612369DB078B
:10422000FCD4122000F0F4FE2369002BFCDAAB6D05
:104230006E6DD3F808E000231A46A36019464FF0CC
:10424000FF3706EB421301327245C3F800194FF0F5
:104250000000C3F81019C3F80879C3F8001BC3F8AD
:10426000101BC3F8087BECD96B68DB684FF00112B8
:10427000C6F81C28C4F81008C4F81408C4F81C08B0
:104280007BB1174BA361AB6E164E4FF0FF326261EC
:104290000DF1180843B1A36843F00103A360FFF7D1
:1042A0002AB9114BA361EEE7DFF84CE00F4BCDF8D4
:1042B00018E006F510710222404606F170070891D9
:1042C00009920A930B96079700F0AAFB00F050FCA6
:1042D000B06600F00DFCDEE70038024000E100E0CF
:1042E000083C30C058210020003C30C0D16A010891
:1042F0004014004003002002A0DA01080000000082
:10430000064A536823F001035360EFF309836833CF
:1043100083F30988002383F31188704730EF00E0AE
:10432000F0B4202383F311880D4E376874684D1E56
:104330003A442B18494250190B4008400344A34209
:1043400007D89F4205D83360002383F31188F0BC5F
:1043500070470020002383F31188F0BC704700BF32
:1043600030130020000000000000000000000000EA
:1043700010B4202383F3118890F82030072B0ED837
:10438000DFE803F0280D0D2408040D08426A936845
:104390000133936090E80C001A60026853604FF09C
:1043A000FF34002281680E4B446280F820201B6895
:1043B0009A688A42FBD25A6842600360002110600A
:1043C000586081F311885DF8044B7047436A0022FE
:1043D0001A60E4E7002383F311885DF8044B70470B
:1043E0001424002000000000000000000000000075
:1043F000FEE700BF00000000000000000000000019
:10440000F0B500EB81060789D6F80CE00126DEF84E
:1044100014408E403E4300270681A26084E8880055
:10442000BDE8F04003F0ACB8000000000000000060
:10443000F0B500EB81064789D6F80CE00126DEF8DE
:1044400018408E403E4300274681A26084E88800E1
:10445000BDE8F04003F0ECB80000000000000000F0
:1044600038B590F834300446152B21D8DFE803F036
:104470000B20202020200B20202131412020202033
:10448000202020200B0B436D4168D3F800290D68D4
:1044900042F40012C3F80029D3F8002B42F40012B2
:1044A000C3F8002B0DB10621A847062384F8343049
:1044B00038BD90F84B1090F84A30C26B43EA0123A4
:1044C000934206D9C3681D8AB2FBF5F305FB132599
:1044D000B5B1142384F83430202383F311880021EC
:1044E0000B4620460A46FFF7A3FF002383F31188FB
:1044F00038BD036C03B19847002384F8343038BDCD
:10450000202383F3118829462A462B46FFF778FF9C
:1045100085F311880A2384F8343038BD0000000088
:10452000F8B590F83430044613B1002380F83430E5
:1045300004EB81016268CB681B6A19685B68A3643D
:104540006164936813B320469847F8B1E56B94F81B
:10455000443094F84B1094F84A2042EA0122AA42CF
:104560003CBFE26315461B067CD4002D6AD10B23A9
:1045700084F83430202383F31188204629462A46C4
:104580002B46FFF73DFF85F31188F8BD94F84430C2
:1045900013F0600616D0626DD2F80039616843F4FA
:1045A0000013C2F80039D2F8003B0D6843F4001341
:1045B000C2F8003B15B120460621A847062384F81F
:1045C0003430F8BD94F8455003F07F0242EA0525E7
:1045D00040F20232954200F036811DD8022D00F0E3
:1045E0001C8140F2EE80B5F5817F00F0F380B5F5D7
:1045F000407F69D0B5F5807FCDD194F84620012A5F
:10460000C9D1B4F84C20A66322F00202E663266406
:104610003546A4F84C209CE740F20162954241D90E
:10462000B5F5106F60D040F60242954200F0EE8082
:10463000B5F5006FAFD104F14F0201252664A263E6
:10464000E56386E7152384F83430202383F311884B
:104650000021E36BA26B2046FFF7EAFE002383F301
:104660001188F8BD7DB1092384F83430202383F309
:1046700011880021E36BA26B2046FFF7C1FE0023E7
:1046800083F31188F8BD142384F83430202383F396
:104690001188204629462A462B46FFF7C9FE85F396
:1046A0001188F8BDB5F5C06F35D2B5F5A06F7FF4B0
:1046B00072AFB4F84420B2F5A06F00F0E08000259E
:1046C000A563E563256444E794F84620012A7FF456
:1046D00062AFB4F84C20A66342F00202E66326649F
:1046E0003546A4F84C2034E794F8462094F84F104F
:1046F0009142E4D02378042B26D04AB1636884F831
:104700004F201B680422227013B1204602219847D3
:1047100094F84430D3E7626894F8490094F848303C
:10472000556894F8471094F8462043EA0023204641
:10473000A84700283FF42FAF43680568E563A363EB
:10474000266494F8443004E7202383F31188A06D95
:10475000218963890268E26501F0010103F0010328
:10476000676DD0F808E02181324626616661A66156
:10477000638131464FF0FF3007EB4213013272453F
:10478000C3F800194FF00005C3F81019C3F8080961
:10479000C3F8001BC3F8101BC3F8080BECD94FF08B
:1047A0000113C7F81C3885F31188636884F84F50EB
:1047B0001B68032121700BB12046984794F84620CE
:1047C0009BE705BB022204F14C012564A163E2636F
:1047D0001546BEE694F84620002A7FF4DCAE94F835
:1047E000482012F00F013FF46AAF636D03EB4113F1
:1047F00011065CD4D3F8002B22F40012C3F8002B6E
:1048000094F844305BE7012D7FF4C5AE314AA263D2
:1048100002250022E56322649BE694F8482002F01A
:104820000F0117064CBF483158314901626D51588C
:1048300008047FF5B1AE11F400111BD1264AE563DF
:104840002164A26385E694F84620002A7FF4A3AE93
:1048500094F8482012F00F013FF431AF636D120657
:1048600003EB41132CD4D3F8002B42F40012C3F80D
:10487000002B4DE7194AE5632664A26369E694F8C4
:104880004610626D84F84E10D2F80038606823F448
:10489000FE63056843EA0113C2F8003815B12046EB
:1048A0000121A847032294F84430227007E7D3F887
:1048B000002922F40012C3F8002994F84430FEE6DF
:1048C000D3F8002942F40012C3F8002994F84430C8
:1048D000F5E600BFB0DA0108C0DA010850DB0108D4
:1048E000202383F31188124B5B6813F4006302D119
:1048F00083F311887047F1EE103AEFF309830D4A04
:104900004FF08071D26843F8082C43F84C1CA3F197
:10491000680282F30988084A116892698968926876
:1049200091428CBF054A064A43F8502C704700BF9D
:1049300000ED00E030EF00E01424002049030108FE
:104940004C0301080000000000000000000000000F
:10495000037DBBB90369002B17DDC368426810B53E
:10496000043353F8044CC360934228BF03680C60BF
:1049700028BFC3600369013B0361183005F010FFD5
:10498000002010BD6FF0010070474FF0FF307047FE
:1049900038B5037DB3B9056842680369541BC3EB9E
:1049A000A403002B11DD8468231D836021609342E2
:1049B000036928BF856001330361203005F0F0FEF4
:1049C000002038BD6FF0010038BD4FF0FF3038BD1A
:1049D0000E4B0F495A688368F0B44F6F4168C66840
:1049E000D0E90445D31ADB1BE4180268836045F163
:1049F00000058B4206F1010688BF43609342C66002
:104A0000C0E9044538BF0360F0BC7047001000E007
:104A1000142400200000000000000000000000003E
:104A200083684168D0F80CC01E4A2DE9F00404697F
:104A300043F86C4C0227446943F8684C046803F857
:104A4000287C0020012703F8267C03F8270C5569F1
:104A500043F8304C43F82C1CA3F11C07A3F1480188
:104A6000114E43F84C6CA3F1AC0AA3F1200443F8B7
:104A70003CAC43F8100C43F8140C43F8345C43F896
:104A800040CC43F80CCC43F8382C084629615161DE
:104A900043F8204C43F81C7C43F8187CBDE8F00434
:104AA000704700BF142400203903010800000000F3
:104AB0000E4A106870B403689469136001260025DB
:104AC000A1685A6080F82060906184F8205000E06E
:104AD0001B689A688A42FBD85A6862602360214644
:104AE00014605C6070BCFBF71BBC00BF142400208A
:104AF000104A70B4106894698368A1688B4201D829
:104B000070BC704703681360012600255A6080F866
:104B10002060906184F8205000E01B689A68914200
:104B2000FBD35A6862602360214614605C6070BCED
:104B3000FBF7F6BB1424002000000000000000007A
:104B4000084B30B41A689969146881F8200001256F
:104B5000636082F820501C60104630BC9A61FBF7FD
:104B6000DFBB00BF14240020000000000000000094
:104B700000228168084B10B4044680F820201B688E
:104B80009A688A42FBD25A686260236020461460A9
:104B90005C605DF8044B70471424002000000000A6
:104BA000F8B50468A04222D00E460746002502E070
:104BB0002468A7421BD0E3683343E36016B122693F
:104BC0001342F5D06068A368416B90F820200B4336
:104BD0000A2A43630CD00B2AEAD1426A13409A4254
:104BE000E6D14562FFF7C4FF2468A742E3D1F8BDD0
:104BF000426A1342DCD04562FFF7BAFFF4E700BF18
:104C0000174B70B59D69202383F311880468C3682E
:104C1000AB63A0421DD0E96B4BB11A68934203D03D
:104C20009268914238BF1146DB68002BF5D10346EC
:104C30002268A66BA96020461A6053609C60DE6003
:104C4000A363FFF795FFFFF753FF002383F311885A
:104C500070BD00238360002383F3118870BD00BF03
:104C600014240020000000000000000000000000EC
:104C700070B5202383F31188324B82689C69002A27
:104C800058D0A16893689942054607D992F8203018
:104C90009160062B35D0072B1FD0ABB12B4603E01C
:104CA0009968A268914202D31B689D42F8D15A6864
:104CB00062602360062014605C606562FFF740FF5D
:104CC000002383F3118870BD92E80A00196011680F
:104CD00010464B60FFF74CFFE0E792E809001860D0
:104CE000566A10684360334602E09868814202D8F1
:104CF0001B689E42F9D15968516013600A605A607E
:104D0000CCE792E809001860566A106843603346A1
:104D100002E09868884202D31B689E42F9D1596824
:104D2000516013600A605A60B268A1689368994242
:104D3000ACD8B3E7A36BC36084600023A06383F3A4
:104D4000118870BD14240020000000000000000045
:104D500083680133002B836000DD704703681A68A5
:104D600002600021506018465962FFF701BF00BF82
:104D700003682BB10022026018465962FFF7F8BEA3
:104D8000704700BF000000000000000000000000AD
:104D900038B52022034682F31188104A9469A06A2C
:104DA000636204F12805A84206D00368A362FFF7F6
:104DB000DFFEA06AA842F8D194F8223043B994F8F3
:104DC00021309B0704D1636922691A61226953610A
:104DD0000F20BDE83840FFF7B3BE00BF1424002009
:104DE0001A4BDA69824210B410D0416802680A6036
:104DF00002681C3300249A425160C46003D0836867
:104E000091680B4493605DF8044B70471846116835
:104E100040F81C1F002481424860D46011D094687F
:104E20008A68986AA3184FF080448B60616A0A1AF6
:104E30009342E8D99B1A012B98BF02230B4463636A
:104E4000E1E74FF08043DC60DDE700BF1424002081
:104E5000F0B51C4D2E464FF0804756F81C4F0361AD
:104E6000012998BF0221B442C2607B6A1BD0AA6AA2
:104E70009B1AC918A36811D32468C91AA3688B4266
:104E8000FAD3636843600460186060608160A3685F
:104E90004FF0FF32591AA1606A62F0BD9942EED21A
:104EA0000A447A63EBE701EB030E00260222AB62B1
:104EB000E8612862046044608160C7F834E03E61C4
:104EC000FA60F0BD14240020000000000000000083
:104ED00030B54B1C87B012D00C4C0D4AA369054667
:104EE00001A8FFF7B5FF2846FFF72AFE049B13B180
:104EF00001A8FFF775FFA369586A07B030BD034CDE
:104F0000FFF71EFEA369586A07B030BD14240020C5
:104F100071430108000000000000000000000000D4
:104F20002DE9F8430446DFF874808946164600F1FF
:104F3000200709E0D8F81830656A5D601F602B60B3
:104F40006362FFF7C5FF38BB237D0420314643B9B8
:104F50002369002B09DC002EECD14FF0FF30BDE8B7
:104F6000F8836FF00100BDE8F883E36862681968B0
:104F700003449342E360C9F8001024BF2368E36050
:104F80002369013B04F11800236105F009FCFFF7D8
:104F9000AFFD0020BDE8F883BDE8F88314240020AD
:104FA000202383F311888268531E002B836004DB67
:104FB0000020002383F31188704710B579B10A4AA5
:104FC000926950624468034682E818000520226016
:104FD0005A60FFF77DFF002383F3118810BD8260C4
:104FE0004FF0FF30F7E700BF14240020000000005E
:104FF00008B50146202383F311880820FFF768FFD6
:10500000002383F3118808BD0000000000000000A9
:10501000034A516853685B1A9842FBD8704700BF37
:10502000001000E000000000000000000000000090
:105030002DE9F8430FFA81F800EB88078146FA6002
:1050400050690D46144618B10021102208F0D8FB13
:10505000A06918B10021102208F0D2FBFB68D9F832
:1050600054401A6802F00302022A55D0032A55D090
:10507000464E4749012A18BF0E466A019969A01891
:105080004FF0000EC0F810EB00296BD0588A05F1E4
:10509000580149013043605005F1100ED4F81C0846
:1050A000012101FA0EF10143C4F81C182244596988
:1050B0000020C2F8100999B3998B1A8A01294FEA86
:1050C000920388BF4B4305F13F00D9F85C1004EB15
:1050D0008000AA0103EB010E42F0200241EA0343E3
:1050E000C9F85CE04360226123699A06FCD412206F
:1050F000FFF78EFFFB681A8A05F148035B0142EA5D
:1051000085523243E2500123D4F81C28AB401343AC
:10511000C4F81C38BDE8F8831E4EAEE71E4EACE75F
:1051200005F13F0204EB8202AB011C49516043F0E0
:105130002003236123699B06FCD404EB481812204A
:10514000FFF766FFD8F8002922F40042C8F80029CA
:10515000D4F81C280123AB4022EA0303C4F81C380E
:10516000BDE8F88304EB481105F1100ED1F8000BEF
:1051700020F40040C1F8000BD4F81C08012101FA0A
:105180000EF120EA0101C4F81C188FE7008004101A
:10519000008000100080081000800C100004000245
:1051A000FEE700BF0000000000000000000000005B
:1051B000F0B4114E002506F1800796E81A00A342CC
:1051C0000DD204391A4651F8040F42F8040BA242DA
:1051D000F9D3DA43144424F0030404342344F2687A
:1051E000934203D243F8045B9342FBD31036BE4292
:1051F000E3D3F0BC704700BFD0DA01080000000024
:10520000FEE700BF000000000000000000000000FA
:10521000704700BF00000000000000000000000018
:10522000704700BF00000000000000000000000008
:1052300011F00C0F00D1704772B6024B024ADA62CD
:10524000FEE700BF1424002060DB0108000000001E
:105250001A4B1B4A9B69DFF874801A4E80B51A4FAF
:105260009A6198F80030CBB93B7813B3002420251D
:1052700040F6B830FFF7BCFE358340F6B830FFF794
:10528000B7FE75833B780134A342F1DC4FF4FA504A
:10529000FFF7AEFE98F80030002BE5D020243483D1
:1052A00042F21070FFF7A4FE74833B78002BD8D035
:1052B000DCE740F6B830FFF79BFED2E7142400206D
:1052C0006CDB010800080240E91C0020E81C0020FB
:1052D00008B5284B284A9B69284E294D9A6110240D
:1052E0003378082B3BD8DFE803F02F25251A0F3A37
:1052F0003A3A05002C83C820FFF77AFE6C834CF203
:105300005030FFF775FEEBE72C834FF47A70FFF710
:105310006FFE6C834FF47A70FFF76AFEE0E72C8330
:1053200041F28830FFF764FE6C8341F28830FFF76A
:105330005FFED5E72C83C820FFF75AFE6C8344F646
:105340002060FFF755FECBE72C8340F6B830FFF71F
:105350004FFE6C834FF47A70FFF74AFEC0E72C8350
:1053600041F28830FFF744FE6C83C820FFF740FE0F
:10537000B6E700BF142400207CDB0108540800209D
:1053800000080240000000000000000000000000D3
:105390002DE9F8434FF080452B699B0703D4BDE806
:1053A000F843FFF79DBA00272F61202686F3118866
:1053B000DFF87890696AD9F81C30D9F828E09A6843
:1053C000CEEB0100904209F11C081CD31968DC687F
:1053D00072444145C9F82820C1F80480C9F81C105E
:1053E000DF6008BFEF6087F311881869A04786F374
:1053F0001188D9F81C30696AD9F828E09A68CEEB90
:1054000001008242E2D9434508D07244521A012A6F
:1054100098BF02224FF080430A445A63002383F36B
:105420001188BDE8F843FFF75BBA00BF14240020E1
:10543000F8B52B4F7E69B2893488B388A4B240F2A4
:105440000F13234095B23BB37B681B694FF6FF6295
:105450003280B3B114F0080F0CBF00211021E20715
:1054600048BF41F00401A00748BF41F008016207AE
:1054700048BF41F02001E00548BF41F04001184815
:105480009847202383F3118816486FF00101FFF736
:105490006FFC002383F3118862060FD56B060DD5D0
:1054A0007A6825F0400352689BB24FF6BF71318095
:1054B000B3810AB10A4890473C7A1CB1BDE8F84074
:1054C000FFF70EBA202383F3118807482146FFF720
:1054D0004FFC84F31188BDE8F840FFF701BA00BF24
:1054E000C01B0020CC1B0020D01B002000000000AF
:1054F00011F00C0F2AD1026A1368196821F01F01FC
:1055000019601968C907FCD410B54368117A0446BC
:1055100050681A683D238B4002210360617092B18C
:10552000204690476378022B0DD0237A53B1202375
:1055300083F31188002104F11000FFF719FC002308
:1055400083F3118810BD00236370EEE772B6024B3F
:10555000024ADA62FEE700BF1424002060DB010883
:1055600011F00C0F0CD1837870B504466BB9436809
:10557000DB68002B2CD0818CBDE8704089B21847C5
:1055800072B6204B204ADA62FEE7C1690B681A68DE
:1055900022F01F021A601A68D207FCD46268087AE7
:1055A0004E6895683D21814002203160A0709DB118
:1055B0002046A847A378022B0BD0202383F3118821
:1055C000002104F10C00FFF7D3FB002383F31188C3
:1055D00070BDE36962681B68D168A26900290CBFCD
:1055E0004FF480714FF488710A430120002504F1C3
:1055F0002401A570D96058601A601A6802431A60C5
:10560000DBE700BF1424002060DB0108000000007D
:1056100038B5494D2B78FBB9484B494A1B6911787D
:10562000C3F30023994203D02E20137004F0C0FB73
:10563000444C2368082B06D8DFE803F007771612DE
:10564000701D5B62690000232360082004F0B0FB3A
:1056500023680133236038BD6A2004F0A9FBDBE72F
:10566000394A1278022AF4D0102004F0A1FB2368F2
:105670000133236038BD354A354B126819689142B1
:1056800003D02C201A6004F093FB324A324B12688C
:105690001968914203D02B201A6004F089FB2F4A2D
:1056A0002F4B12681968914203D051201A6004F000
:1056B0007FFB2C4A2C4B12681968914203D0502072
:1056C0001A6004F075FB294A294B12681968914247
:1056D00003D052201A6004F06BFB264A264B126856
:1056E0001968914216D02D201A6004F061FB2368DE
:1056F000AFE72A78002AACD14FF0FF33236038BDE2
:105700001D2004F055FB23680133236038BD292098
:1057100004F04EFB23680133236038BD1A2004F0E7
:1057200047FB23680133236038BD0F2004F040FBA2
:1057300023680133236038BD0C1D0020000802409F
:10574000681C00206C1C0020540800207C200020D5
:105750007C1C002010240020781C0020B441002074
:10576000701C0020B8410020741C0020EC1C00209C
:10577000881C0020101D0020841C00200000000058
:10578000F8B5894D2B78984200F0B4805A1E0E4629
:10579000072A00F29180DFE802F08359382F8F0446
:1057A0008F2F02282DD0042800F0AE8001287BD155
:1057B0007E4B9FED7F7AD3ED007A7E4B7E4ADFF8F9
:1057C00024E27E497E4F1E70F8EEE77A0123C7EE91
:1057D000277A002400260320CEF800603B702B704F
:1057E0000C60FDEEE77AC2ED007A04F0E1FA0920E0
:1057F00004F0DEFA0120F8BD082800F060810228DC
:1058000055D16C4A02231670ADE00B284FD000280A
:105810004DD001380A2800F2528101A353F820F03C
:10582000B157010803580108315901080959010805
:10583000FF580108FF580108BF5A0108BF5A010864
:10584000BF5A0108BF5A0108E95901080B2800F0A6
:10585000CB80062800F03581042855D0052800F0BB
:10586000308108BB574C237893B9574A1278022AE3
:105870000ED1564A80202021137005F099F801219D
:10588000402005F095F8524A4021012351832370AE
:1058900050485149514A002303600B60136074E083
:1058A0000228AED004282FD0082800F00881092053
:1058B00004F07EFA0020F8BD0B2800F2008101A25E
:1058C00052F820F085590108B15701080358010822
:1058D0003159010809590108F9580108F958010816
:1058E000BF5A0108BF5A0108BF5A0108BF5A010830
:1058F000E95901080120F8BD022B00F0E2800920DF
:1059000004F056FA0120F8BD2A4C2D4A2B4F267080
:1059100004234FF0000E01212B700320C7F800E094
:10592000117004F045FA092004F042FA0120F8BD94
:10593000002EE4D01F4C2A4B267003214FF48052D6
:1059400029701A8305F084FA0028D8D11E4B1B78E1
:10595000032B03D02B7813F0FD0FD6D1174A2670F6
:105960000021082311602B7005F04AFA1C4B4FF4FC
:1059700080525A830A2004F01BFA092004F018FA16
:105980000120F8BD002B7FF46DAF0A4A002316708A
:105990002B7005F035FA0A2004F00AFA092004F009
:1059A00007FA0120F8BD00BF54080020700800204D
:1059B0006ECE2F48000800202C080020B4080020DC
:1059C0009C080020801C002055080020BC410020BD
:1059D00000080240901C00203408002038130020EA
:1059E000000402400C0D00203E4A0B2316702B7061
:1059F00005F006FA3C4B3D4A596D4FF480505083F8
:105A00008A6B22F400228A63202282F311881A789A
:105A1000586D012A2CD09A6D0024976825464FF0C6
:105A2000FF3600EB44120134BC42C2F800594FF07B
:105A30000001C2F81059C2F80869C2F8005BC2F848
:105A4000105BC2F8086BECD9294A2A4C19664FF052
:105A500001160825C0F81C68C0F81C188160816315
:105A6000C2F8885082F84313626B22F080026263AE
:105A7000002401225C60DC601C615C619C611A7026
:105A8000FFF736F884F311881A4B5A6C22F48072AF
:105A90005A645A6C22F400725A645A6C22F480627E
:105AA0005A6472B6BFF34F8F1349144BCA6802F49D
:105AB000E0621343CB60BFF34F8F00BFFDE7094C9B
:105AC00044E70849094B28704FF480520E701A833E
:105AD00005F096F90A4B80221A830A2004F068F92F
