:020000040801F1
:1000000000040020010201084141010841410108AA
:1000100041410108414101084141010841410108B4
:100020004141010841410108414101086133010892
:100030004141010841410108414101084141010894
:100040004141010841410108414101084141010884
:100050004141010841410108414101084141010874
:10006000414101084141010841410108A1460108FF
:10007000714601084146010811460108E1450108A1
:10008000B145010881450108519D0108814B0108D6
:10009000214B0108C14A0108614A01084141010898
:1000A0004141010841410108414101084141010824
:1000B000A1500108414101084141010841410108A5
:1000C0004141010841410108414101084141010804
:1000D00041410108415101084141010841410108E4
:1000E00041410108414101084141010841410108E4
:1000F00041410108414101084141010851450108C0
:1001000041410108414101084141010841410108C3
:1001100041410108414101084141010841410108B3
:1001200021450108F1440108C14401089144010836
:100130006144010841410108414101084141010870
:10014000414101084141010841410108D1460108EE
:100150003144010801440108D1430108414101082B
:100160004141010841410108414101084141010863
:100170004141010841410108414101084141010853
:100180004141010841410108414101084141010843
:100190004141010841410108414101084141010833
:1001A0004141010841410108414101084141010823
:1001B0004141010841410108414101084141010813
:1001C0004141010841410108414101084141010803
:1001D00041410108414101084141010841410108F3
:1001E000EE11AA5500000000000000000000000011
:0401F000B1660108EB
:1002000072B6394880F30888384880F3098838483E
:100210004EF60851CEF20001086040F20000CCF228
:1002200000004EF63471CEF200010860BFF34F8F2C
:10023000BFF36F8F40F20000C0F2F0004EF688511D
:10024000CEF200010860BFF34F8FBFF36F8F4FF006
:100250000000E1EE100A4EF63C71CEF2000108609B
:10026000062080F31488BFF36F8F03F0A9FF05F019
:100270003FFC4FF055301F491B4A91423CBF41F8AB
:10028000040BFAE71C49194A91423CBF41F8040BA0
:10029000FAE71A491A4A1B4B9A423EBF51F8040B1F
:1002A00042F8040BF8E700201749184A91423CBF76
:1002B00041F8040BFAE703F04BFF03F079FF144C0D
:1002C000144DAC4203DA54F8041B8847F9E700F0F8
:1002D000AFFD114C114DAC4203DA54F8041B8847B2
:1002E000F9E703F05DBF00000004002000080020D3
:1002F000000001080000002000040020B0D5010823
:1003000000080020F40C0020F80C002050420020CF
:10031000F0010108F4010108F4010108F4010108E9
:100320002DE9F04F2DED108AC1F80CD0C3689D4621
:10033000BDEC108ABDE8F08F002383F311882846B6
:10034000A047002003F0F4FC03F082FB00DFFEE78F
:1003500081F0004102E000BF83F0004330B54FEA76
:1003600041044FEA430594EA050F08BF90EA020FE3
:100370001FBF54EA000C55EA020C7FEA645C7FEA76
:10038000655C00F0E2804FEA5454D4EB5555B8BF99
:100390006D420CDD2C4480EA020281EA030382EA0A
:1003A000000083EA010180EA020281EA0303362D9C
:1003B00088BF30BD11F0004F4FEA01314FF4801C6F
:1003C0004CEA113102D0404261EB410113F0004F81
:1003D0004FEA03334CEA133302D0524263EB430338
:1003E00094EA050F00F0A780A4F10104D5F1200ED6
:1003F0000DDB02FA0EFC22FA05F2801841F1000131
:1004000003FA0EF2801843FA05F359410EE0A5F104
:1004100020050EF1200E012A03FA0EFC28BF4CF035
:10042000020C43FA05F3C01851EBE37101F00045EB
:1004300007D54FF0000EDCF1000C7EEB00006EEBF8
:100440000101B1F5801F1BD3B1F5001F0CD3490882
:100450005FEA30004FEA3C0C04F101044FEA4452D9
:1004600012F5800F80F09A80BCF1004F08BF5FEA60
:10047000500C50F1000041EB045141EA050130BD40
:100480005FEA4C0C404141EB010111F4801FA4F1E3
:100490000104E9D191F0000F04BF01460020B1FA38
:1004A00081F308BF2033A3F10B03B3F120020CDA70
:1004B0000C3208DD02F1140CC2F10C0201FA0CF04E
:1004C00021FA02F10CE002F11402D8BFC2F1200CB3
:1004D00001FA02F120FA0CFCDCBF41EA0C01904069
:1004E000E41AA2BF01EB0451294330BD6FEA0404B2
:1004F0001F3C1CDA0C340EDC04F11404C4F120029D
:1005000020FA04F001FA02F340EA030021FA04F3AE
:1005100045EA030130BDC4F10C04C4F1200220FA05
:1005200002F001FA04F340EA0300294630BD21FA43
:1005300004F0294630BD94F0000F83F4801306BF09
:1005400081F480110134013D4EE77FEA645C18BFFD
:100550007FEA655C29D094EA050F08BF90EA020F94
:1005600005D054EA000C04BF1946104630BD91EA8C
:10057000030F1EBF0021002030BD5FEA545C05D18F
:100580004000494128BF41F0004130BD14F58004CE
:100590003CBF01F5801130BD01F0004545F0FE4142
:1005A00041F470014FF0000030BD7FEA645C1ABF77
:1005B000194610467FEA655C1CBF0B46024650EAAE
:1005C000013406BF52EA033591EA030F41F40021DA
:1005D00030BD00BF90F0000F04BF0021704730B560
:1005E0004FF4806404F132044FF000054FF0000135
:1005F00050E700BF90F0000F04BF0021704730B5F6
:100600004FF4806404F1320410F0004548BF4042CA
:100610004FF000013EE700BF42004FEAE2014FEA1F
:1006200031014FEA02701FBF12F07F4393F07F4FFA
:1006300081F06051704792F0000F14BF93F07F4F2C
:10064000704730B54FF4607401F0004521F000416F
:1006500020E700BF50EA010208BF704730B54FF0F5
:1006600000050AE050EA010208BF704730B511F0FA
:10067000004502D5404261EB41014FF4806404F132
:1006800032045FEA915C3FF4DCAE4FF003025FEAB4
:10069000DC0C18BF03325FEADC0C18BF033202EB3C
:1006A000DC02C2F1200300FA03FC20FA02F001FA96
:1006B00003FE40EA0E0021FA02F11444C1E600BF35
:1006C00070B54FF0FF0C4CF4E06C1CEA11541DBFE8
:1006D0001CEA135594EA0C0F95EA0C0F00F0DEF8B3
:1006E0002C4481EA030621EA4C5123EA4C5350EA98
:1006F000013518BF52EA033541F4801143F48013E9
:1007000038D0A0FB02CE4FF00005E1FB02E506F079
:100710000042E0FB03E54FF00006E1FB03569CF0CE
:10072000000F18BF4EF0010EA4F1FF04B6F5007FD4
:1007300064F5407404D25FEA4E0E6D4146EB060646
:1007400042EAC62141EA55514FEAC52040EA5E50CF
:100750004FEACE2EB4F1FD0C88BFBCF5E06F1ED879
:10076000BEF1004F08BF5FEA500E50F1000041EBB0
:10077000045170BD06F0004646EA010140EA02005D
:1007800081EA0301B4EB5C04C2BFD4EB0C0541EA7F
:10079000045170BD41F480114FF0000E013C00F394
:1007A000AB8014F1360FDEBF002001F0004170BDB8
:1007B000C4F10004203C35DA0C341BDC04F11404D1
:1007C000C4F1200500FA05F320FA04F001FA05F25D
:1007D00040EA020001F0004221F0004110EBD3702A
:1007E00021FA04F642EB06015EEA430E08BF20EA56
:1007F000D37070BDC4F10C04C4F1200500FA04F3F9
:1008000020FA05F001FA04F240EA020001F000418A
:1008100010EBD37041F100015EEA430E08BF20EAFD
:10082000D37070BDC4F1200500FA05F24EEA020E45
:1008300020FA04F301FA05F243EA020321FA04F074
:1008400001F0004121FA04F220EA020000EBD3702B
:100850005EEA430E08BF20EAD37070BD94F0000F2B
:100860000FD101F00046400041EB010111F4801F5F
:1008700008BF013CF7D041EA060195F0000F18BF10
:10088000704703F00046520043EB030313F4801F4C
:1008900008BF013DF7D043EA0603704794EA0C0F06
:1008A0000CEA135518BF95EA0C0F0CD050EA41061C
:1008B00018BF52EA4306D1D181EA030101F0004199
:1008C0004FF0000070BD50EA410606BF10461946C1
:1008D00052EA430619D094EA0C0F02D150EA0136CD
:1008E00013D195EA0C0F05D152EA03361CBF10460E
:1008F00019460AD181EA030101F0004141F0FE41AD
:1009000041F470014FF0000070BD41F0FE4141F430
:10091000780170BD70B54FF0FF0C4CF4E06C1CEA30
:1009200011541DBF1CEA135594EA0C0F95EA0C0FE5
:1009300000F0A7F8A4EB050481EA030E52EA0335A0
:100940004FEA013100F088804FEA03334FF08055C1
:1009500045EA131343EA12634FEA022245EA1115EE
:1009600045EA10654FEA00260EF000419D4208BF9F
:10097000964244F1FD0404F5407402D25B084FEA4C
:100980003202B61A65EB03055B084FEA32024FF4F8
:1009900080104FF4002CB6EB020E75EB030E22BF55
:1009A000B61A754640EA0C005B084FEA3202B6EB15
:1009B000020E75EB030E22BFB61A754640EA5C00C4
:1009C0005B084FEA3202B6EB020E75EB030E22BF54
:1009D000B61A754640EA9C005B084FEA3202B6EB55
:1009E000020E75EB030E22BFB61A754640EADC0014
:1009F00055EA060E18D04FEA051545EA16754FEA76
:100A000006164FEAC30343EA52734FEAC2025FEA93
:100A10001C1CC0D111F4801F0BD141EA00014FF022
:100A200000004FF0004CB6E711F4801F04BF0143F3
:100A30000020B4F1FD0C88BFBCF5E06F3FF6AFAE0F
:100A4000B5EB030C04BFB6EB020C5FEA500C50F19F
:100A5000000041EB045170BD0EF0004E4EEA113122
:100A600014EB5C04C2BFD4EB0C0541EA045170BD29
:100A700041F480114FF0000E013C90E645EA060E6D
:100A80008DE60CEA135594EA0C0F08BF95EA0C0F9B
:100A90003FF43BAF94EA0C0F0AD150EA01347FF4E3
:100AA00034AF95EA0C0F7FF425AF104619462CE7BA
:100AB00095EA0C0F06D152EA03353FF4FDAE10461D
:100AC000194622E750EA410618BF52EA43067FF46E
:100AD000C5AE50EA41047FF40DAF52EA43057FF4FE
:100AE000EBAE12E700000000000000000000000074
:100AF0004FF0FF3C06E000BF4FF0010C02E000BFEA
:100B00004FF0010C4DF804CD4FEA410C7FEA6C5CCC
:100B10004FEA430C18BF7FEA6C5C1BD001B050EA6F
:100B2000410C0CBF52EA430C91EA030F02BF90EA5A
:100B3000020F0020704710F1000F91EA030F58BF19
:100B4000994208BF90422CBFD8176FEAE37040F07B
:100B5000010070474FEA410C7FEA6C5C02D150EA19
:100B6000013C07D14FEA430C7FEA6C5CD6D152EAD4
:100B7000033CD3D05DF8040B704700BF8446104699
:100B800062468C461946634600E000BF01B5FFF798
:100B9000B7FF002848BF10F1000F01BD4DF808ED68
:100BA000FFF7F4FF0CBF012000205DF808FB00BF39
:100BB0004DF808EDFFF7EAFF34BF012000205DF893
:100BC00008FB00BF4DF808EDFFF7E0FF94BF0120E0
:100BD00000205DF808FB00BF4DF808EDFFF7CEFFE1
:100BE00094BF012000205DF808FB00BF4DF808ED20
:100BF000FFF7C4FF34BF012000205DF808FB00BFF1
:100C00004FEA410212F5001215D211D56FF4787334
:100C1000B3EB625212D94FEAC12343F0004343EAD7
:100C2000505311F0004F23FA02F018BF40427047B2
:100C30004FF00000704750EA013005D111F000403C
:100C400008BF6FF0004070474FF00000704700BFD2
:100C50004FEA4102B2F1E04324BFB3F5001CDCF1DE
:100C6000FE5C0DD901F0004C4FEAC0024CEA507016
:100C7000B2F1004F40EB830008BF20F00100704745
:100C800011F0804F21D113F13872BCBF01F0004048
:100C9000704741F480114FEA5252C2F11802C2F17A
:100CA000200C10FA0CF320FA02F018BF40F00100FB
:100CB0004FEAC1234FEAD32303FA0CFC40EA0C00AD
:100CC00023FA02F34FEA4303CCE77FEA625307D1EA
:100CD00050EA01331EBF4FF0FE4040F44000704721
:100CE00001F0004040F0FE4040F40000704700BFBB
:100CF000844641EA000313F003036DD1403A41D327
:100D000051F8043B40F8043B51F8043B40F8043BE5
:100D100051F8043B40F8043B51F8043B40F8043BD5
:100D200051F8043B40F8043B51F8043B40F8043BC5
:100D300051F8043B40F8043B51F8043B40F8043BB5
:100D400051F8043B40F8043B51F8043B40F8043BA5
:100D500051F8043B40F8043B51F8043B40F8043B95
:100D600051F8043B40F8043B51F8043B40F8043B85
:100D700051F8043B40F8043B51F8043B40F8043B75
:100D8000403ABDD2303211D351F8043B40F8043B15
:100D900051F8043B40F8043B51F8043B40F8043B55
:100DA00051F8043B40F8043B103AEDD20C3205D325
:100DB00051F8043B40F8043B043AF9D2043208D01D
:100DC000D2071CBF11F8013B00F8013B01D30B888F
:100DD00003806046704700BF082A13D38B078DD06D
:100DE00010F003038AD0C3F10403D21ADB071CBF3F
:100DF00011F8013B00F8013B80D331F8023B20F8A9
:100E0000023B7BE7043AD9D3013A11F8013B00F8E1
:100E1000013BF9D20B7803704B7843708B78837069
:100E20006046704700000000000000000000000065
:100E3000C44BC54C1A694FF0FF3100222DE98048A0
:100E400019611A61586959615A61186A60F08050D5
:100E500018621A62586A59625A62196C41F08051DC
:100E60001964216841F480712160196F01F44071A7
:100E7000B1F5007F97B003D04FF4803119671A673E
:100E8000B148B24C4268B24EB24D002122F4007219
:100E900042600B4621600A46F058026045F8312056
:100EA0000131102903F10C034FF00004F4D1DFF8F5
:100EB000E492DFF8E4C2DFF88C8203914FF0FF3355
:100EC000C9F80830C9F80C30CCF80830CCF80C3030
:100ED000D8F830C0A04ADFF8C492DFF8C4B2DFF817
:100EE000C4E29E489E4E9F4D9F49DFF8BCA29F4F93
:100EF0006FEA5C2C6FEA4C2CC8F830C0D8F850C0B0
:100F00006FEA5C2C6FEA4C2CC8F850C06FF4004CB0
:100F10005460C2F808C0C2F80C904FF6DF0CDFF83E
:100F20008C92C2F814C01462DFF884C2C2F8249014
:100F30006FF0AC49C2F800C0CBF80440DFF874C2CF
:100F4000CBF8089040F6DF79CBF80CC0CBF81490C2
:100F50004FF0EE4CDFF86092CBF820C0CBF8249035
:100F6000DFF858C2DFF85892CBF800C0804ACEF8BC
:100F7000044049F6CF5CCEF80830CEF80C90DFF88C
:100F80004492CEF814C0CEF82040CEF82490CEF88B
:100F90000020784A74604FF6FF7E4FF0553CB360F6
:100FA000C6F80CC0C6F814E03462746234606C6039
:100FB000AB60C5F80CC0C5F814E02C626C622C6004
:100FC00044608360C0F80CC0C0F814E0046244625E
:100FD00004604C608B60C1F80CC0C1F814E00C6276
:100FE0004C620C6054609360634AC0F80C2800F5B2
:100FF0000060C0F814E0046244620460CAF804406F
:10100000CAF80830CAF80CC0CAF814E0CAF8204080
:10101000CAF82440CAF80040D8F840507C604FF02D
:101020000109A1F5DA3145F0007587F80090C8F89C
:101030004050D1F80052F9622D0C2D0445EA090503
:10104000C1F80052D1F800524C48DFF87CC144602E
:101050002D0C2D0445F4606545EA0905C1F80052E0
:10106000C1F84042C1F84442C1F80442C1F81442F8
:10107000C1F80C92C1F81C92D1F80052404A414E7E
:10108000DFF848E125F00105C1F80052D8F840101A
:101090002F4D21F00071C8F8401007F11801B96117
:1010A00007F11C01F96107F12001396207F1240100
:1010B000796207F12801B96207F10801B960F960A6
:1010C00007F110013961796105F1540180F8009050
:1010D0004162C0F828C001F1480C5439056201F1A1
:1010E000B40A00F10C05284984604461C0F81CE092
:1010F000C162C56005614FF0060E4FF0A041234864
:10110000234D82F800907561C6F818E0C6F81CC03F
:10111000C6F820A05460D46194621462D462546210
:1011200014631481548154669466516586F8009066
:101130007470B47074603472F46034619065D8F87F
:10114000402045E000380240007000401C140020A0
:1011500090C601082C140020000002400014024038
:10116000000C0240001002400018024058410020CC
:10117000FF05A416001C024050555555D8390020D3
:10118000E82C0020AC1400204600010050C60108E5
:1011900000100140006002400064024000800064D2
:1011A00000040240000802400020024011A10A0091
:1011B000FF7FAAAA50555500994410118FA40AA97F
:1011C000555545540066060016000100003C0040DD
:1011D000BF48C04DDFF844A342EA0902C8F84020E6
:1011E00081686B624FF0804242F2CF0C41EA090104
:1011F00081604FF0805EC2F828C0D362946154636E
:10120000D4605460C2F81490C2F800906FF07F026E
:101210008AF81C2305F11C01CAF880E10022CAF8F3
:1012200000E010A810932D6000236D60CDE9142319
:10123000E9612962119412941394AC602D616D617F
:10124000AC626C6705F0CCFA10A802F091FBA24BDF
:10125000DFF8CCC2A14A1A60A14ACCF80020A14A0A
:101260006869D16805908020A863E86604911298A7
:101270009D496867A964059885F8514003F11001FC
:101280001961596105F1300E04996C6685F8529028
:101290009C616864AC662D64C0F810E04FF6FF00F6
:1012A000084092499C6001439148D160C168DC606C
:1012B00041F080718F4BC1601B68C5F814E043EAB0
:1012C000090105F15803C5F818E0EC6485F8509061
:1012D000AB65894BCCF8043005F15C03EB652B66FC
:1012E000844B4FF0200C19609DF80C30D37782F8B6
:1012F00022C084F3118862B68CF311887F48CDF840
:1013000010C002F05DFB05F03BFA84F311884FF446
:101310008053ABF81A307A4B7A487B4D4FF08002FD
:101320005A83D8F84410794A41F48071C8F84410BF
:10133000D8F8441041F40071C8F84410D8F84410AB
:1013400041F48061C8F8441041680A4042F4803298
:10135000A3F5604342F48072426010A91846ABF5D1
:10136000624B039310948DF844908DF8454012948D
:10137000139414948DF8549007F06AFD10A9284630
:1013800007F066FD10A9584607F062FD2A69039B25
:101390005F486049604C22F4E0122A616A6B22F0D7
:1013A0001F0242F006026A639A6B22F4401242F472
:1013B00080129A63DA6822F00702DA601A6922F46E
:1013C00060321A611A6922F4E0121A619A6822F4F2
:1013D000702242F480329A609A6822F4401242F4F9
:1013E00000129A60AA6B22F4401242F48012AA639F
:1013F000EA6822F03802EA602A6922F4E0422A61AF
:101400002A6922F007022A61EA6822F46062EA602F
:10141000AA6822F4702242F48032AA60AA6822F4F8
:10142000401242F40012AA60DBF8382022F4401285
:1014300042F48012CBF83820DBF80C2022F4E07262
:10144000CBF80C20DBF8102022F46062CBF81020DF
:10145000DBF8102022F03802CBF81020DBF8102047
:1014600022F4E072CBF81020DBF8102022F060525A
:10147000CBF81020DBF8082022F4702242F48032EE
:10148000CBF80820DBF8082022F440124FF4802E1D
:1014900042F400124FF06009CBF808209C63A86367
:1014A000CBF838108AF81293CAF880E1CAF800E045
:1014B0005A6842F080025A606A6842F080026A60AC
:1014C000DBF8042042F08002CBF804205A6829E0BF
:1014D000002004E004300020581A00208133010865
:1014E0005042002000ED00E060C601080003FA054C
:1014F000F0ED00E0001000E00000022060C70108ED
:10150000000002400023014000210140E030FCFFC8
:10151000002C120000B0110000A8120000E100E051
:101520002414002042F020025A609A6842F001021E
:101530009A60AB6843F00103AB60DBF8083043F01E
:101540000103CBF8083008F093FEDDF810C08CF3EF
:10155000118833788D4A7260012B00F0DA80F469CB
:10156000356A2168D5F800E07369108BD1F800C0A6
:101570004FF000082CF01F0C86F8028086F80180DE
:10158000C1F800C0D1F800C01CF0010FFAD194F8E6
:101590000880D4F804C03D2404FA08F4CCF80040D4
:1015A000DEF8004024F01F04CEF80040DEF80040D2
:1015B00014F00104FAD195F80880DFF820E2D5F89C
:1015C00004C03D2505FA08F57345CCF800509C8110
:1015D0001C829C8200F052876D4CA34200F04E8723
:1015E00055696C4CB4FBF5F4A4B21C81D468558BDE
:1015F000928BB3F80080DFF8E8E1B3F80480002CA8
:10160000B46940F4045C45F040050CBF4FF48070B1
:101610004FF4887042F0C10204434CF00C0C0120DE
:10162000ADB24FF0000892B2A3F800801D829A82FA
:10163000A3F80CC0C1F80CE048600C600B680222F3
:1016400003430B60327088F31188534B534D1B6872
:10165000534EDFF890E1DFF890C1524C23F07F4306
:101660002B602021DEF800E0DCF800307183267862
:1016700073446B60002E00F0AD8604F0C9FA4A4B4B
:1016800001241C7007F00CFC07F0FAFD474A1378A0
:101690003BB914704648474B4FF4AA61802205F0CD
:1016A000A7F8454B4548DFED468ADFF840B1DFF843
:1016B0004081DFF840A1DFF840919FED429A4FF45E
:1016C000E871802205F094F83F4B404880224FF4A7
:1016D000E87105F08DF8092007F0EAFA012007F01B
:1016E000E7FA3B4B00221B780492F0EE689A0C2B31
:1016F00000F2F781DFE813F0D901C401D201C4017F
:101700009F011E01B501C401D201F501C401D2013E
:10171000C401304AF069CDF80CC00C21334603F007
:10172000AFFB2D4A306A0C21334603F0A9FBD8F8F1
:1017300044107268B36941F01001C020C8F8441029
:101740008AF82503108BDDF80CC0CAF884C100F4B8
:10175000A05143F00063B1F5805FCAF804C0F4699A
:10176000B361356A2168D5F800E004BF43F4205323
:10177000B36173694FF0000803F1040CC1F808C0AD
:10178000CEF808C0A6F82480F0E600BF08080020C4
:101790000014014080DE8002107AFF1F80260020A6
:1017A000000402401814002038410020183A00209C
:1017B000C80E0020D1240108E14F0108F80C0020D8
:1017C0000000000000FEFF46614F0108D814002011
:1017D0006108002071520108015201080010014007
:1017E000D0140020187AFF1F147AFF1F2C08002045
:1017F00034080020743A002070260020C24BC34AEF
:1018000093ED007AC24B1278D3ED007AC14BC149F7
:101810001B7889EE077A0133012A0B7067EE277A6D
:10182000FDEEE77ACDED037ABDF80C7000F0A682EC
:10183000B94B1B78022B00F0AE82032B00F07083B3
:10184000012B00F06D83B54BDFEDB57AD3ED006A67
:10185000B44BB54A93ED007AB44B92ED006A1B7815
:1018600066EEA77A27EE097AC7EE277AFDEEE77AC9
:10187000CDED037ABDF80C105BB1012B1ED1A64A49
:101880001278022A03BFAA4AD2ED007A36EE676ABE
:1018900000239FEDA87A9F4A66EE097A66EE876A72
:1018A00012780092C7EEA67A09B23AB2FDEEE77A54
:1018B000CDED037ABDF90C0006F0DAFF012008F047
:1018C0003FFC9D4BADF83E001A889B49824203467F
:1018D00000F0C683994B08801B78002B40F0C6832C
:1018E000974B1B78002B00F03382964A1278002A1F
:1018F00040F02E8220200DF13E01022204F0D8F9A2
:101900008E4A00232120137007F0D2F9222007F01D
:10191000CFF9232007F0CCF9BDF83E3003F4806303
:101920009CB2002C40F09883049B052B00F3C484E8
:101930000133049308F034FDD9ED007A9FED827AEB
:10194000DFED826A30EE670A20EE077A77EE877A5B
:10195000F4EEE67AF1EE10FAC9ED007A00F3C880F1
:101960007B4B1B78012B18D0C0F02C81022B1AD195
:10197000784BD9ED006AD3ED007AF4EEE76AF1EE28
:1019800010FA00F32C81B1EE087A77EEC77AF4EE04
:10199000E76AF1EE10FA00F1BB816F4B1B6913F49B
:1019A000006400F013816C4B1A69520540F1038109
:1019B000694B1B69DB0400F1E38008F029FDDBEDD6
:1019C000007A9FED667A664B30EE670AD3ED006AC7
:1019D00020EE077A77EE877AF4EEE67AF1EE10FAE7
:1019E000CBED007A00F38B805E4B5E4C1B78022BB4
:1019F0003FF47DAE5C4A9BED007AD2ED007AB4EE06
:101A0000E77AF1EE10FA7FF572AE0C2B3FF66FAE6F
:101A1000012000FA03F541F288422A40002A40F0F2
:101A2000728115F0610F3FF462AE0146022003F0AF
:101A30006FFD23785BE64D4A4D4C01230320137064
:101A400007F036F94A4B4B4A1B68C2ED008A092B56
:101A500040F269814FF47A7002F09AFA03F0A8FC20
:101A600068E7414B9BED007AD3ED007AB4EEE77A5C
:101A7000F1EE10FA40F1CC80022003F0C1FE59E7EC
:101A80003D484FF47A7102F05BFA002800F0AB8019
:101A90003A4B3A4A1B68013313604BE74FF4FA6044
:101AA00002F076FA03F084FC44E703F081FC2E4B4D
:101AB0009BED007AD3ED007AB4EEE77AF1EE10FAFE
:101AC0000AD4124B1B78022B00F03781032B00F055
:101AD0002781012B00F020810121022003F018FD55
:101AE00028E70D2003F08CFE642002F051FA21E774
:101AF0001E4A01230320137007F0DAF830E70820AC
:101B000003F07EFE70E700BF700800206C08002024
:101B1000783B0020881C002001300020A41C0020FD
:101B2000DB0FC941F8250020884100203008002043
:101B300000260020DB0F49411A1400208C3A0020B7
:101B40005441002078260020CDCC4C3D0000A0421E
:101B50004C0800206408002000040240CDCC4C3E1C
:101B600000080020610800204808002060080020CC
:101B7000201400209C08002088080020901C0020D1
:101B800008F0D6FBCC4B9FEDCD7AD3ED007ADFED9C
:101B9000CC6A30EE670A20EE077A77EE877AF4EEA9
:101BA000E67AF1EE10FAC3ED007A7FF706AF132064
:101BB00003F026FE01E74FF480525A83142003F00D
:101BC0001FFEF5E6BF4B80225A83ECE6BD4B802218
:101BD0005A83122003F014FEBB4B1C70E3E6B94B92
:101BE00080221A83D9E6B94B1B78002B3FF406AE4E
:101BF000072003F005FE202007F05AF8212007F007
:101C000057F8222007F054F8232007F051F891E606
:101C1000AF4AB04C01230320137007F049F803F0DA
:101C2000C7FBAD4B4FF400521A832369580706D403
:101C30004FF47A7002F0ACF923695907F8D505F032
:101C4000E7FCA54B9FEDA58A9FEDA5CADFEDA5BAE0
:101C50009FEDA5BADFEDA5AA4FF480421A8305F0E7
:101C600077FFB0EE48AAC8ED008A4DF2F62417E0DF
:101C7000B4EE668AF1EE10FA48BFB0EE668ADBED8C
:101C8000000A60EEAA7AB7EE007AC7EE270A20EEC5
:101C9000880A60EEA80A08F06BF9013C00F0838026
:101CA00008F0B6FB92488BED000A052102F048F9D6
:101CB00008BB05F075FD9AED017ADAED027A77EE50
:101CC000277AB1EE047A37EE877A2AEE0CAA27EE4D
:101CD0000B7A67EEEB7A38EE078AB0EE087AB4EE4C
:101CE000C78AF1EE10FAF8EE086A3AEE27AABFDDCD
:101CF000B0EE478AC3E70A20774B4FF480425A83FD
:101D000003F07EFD16E6014603F002FC2378EEE4C4
:101D10006C4B80225A8340E6764B1B68002B10DD0B
:101D200003F08EFD06E6744B1878744B197804F0B6
:101D300047FC2368013323608CE605F0A9F80028EE
:101D4000EED103F035FB4FF47A7002F021F9F1E5A2
:101D5000072120228DF841308DF84010BDF83E302B
:101D6000ADF8443010A80621ADF8422003F048FF3A
:101D7000614B1B78002B3FF4C3ADBBE5604B604A61
:101D80001B68002B40F3E782013B13605D4B1B781F
:101D9000022B7FF452AD5C4B1A78002A3FF453AD0E
:101DA00000221A704FE5F0EE087AB4EEE78AF1EE01
:101DB00010FA79DAF8EE087AB4EEE78AF1EE10FA62
:101DC00072D988EE0A8A514B1520274641F288368F
:101DD000DFED46AA83ED008A06F06AFFCDED109A8A
:101DE000CDED119A4248052110AC012502F0A8F86A
:101DF00068BB05F0D5FCDAED016ADAED027A94ED04
:101E0000007A76EEA77A012D77EE677AB7EE006A50
:101E1000BFEE000AE4EC017A00F08A82DBED000AF2
:101E200098ED007A60EEAA7A30EE470AC6EE270AED
:101E300020EE200A60EEA80A08F09AF8022D07D0DA
:101E40002B480521013502F07BF80028D1D00A2764
:101E5000013EC7D1DFED257A9BED000A2C4C2D4DBC
:101E600020EE270AB7EE008A88EE000A20EE280A44
:101E7000F0EE400A08F07CF8DDED116A9DED107A75
:101E8000DFED257A9FED256A36EEC77AC7EE277A11
:101E9000C8EE277AF4EEC67AF1EE10FAC4ED007AB5
:101EA00040F1EA800F2027E788EE0A8A174B0E20C0
:101EB00083ED008A20E700BF7C260020CDCCCC3DFE
:101EC00000005042000002404C080020193A002057
:101ED00060080020000C02400008024000000000E2
:101EE000A4707D3F0AD7233C609D113AABAA2A3FDC
:101EF0003C080020841C00205441002004080020DD
:101F00002808002001300020B83B002038080020BD
:101F10007C0800202C080020B0338E3EBD3786356B
:101F2000BD4BBD4A1B78002B3FF48DACBB4B0B97D0
:101F3000DB780593B94B9B780A93B94B01250024B4
:101F400093ED008A012D4FF0000326461370039392
:101F500027467BD00A9B002B72D001240223B14A72
:101F600002EB8303AD4A125D002A69D0D3ED007AFB
:101F7000C7EE887A17EE900AFEF74EFB41EC100B85
:101F800041EC1A0B08F004FC53EC102B3846CDE959
:101F90000623FEF741FBDDE90623FEF7DFF9B0EE8D
:101FA0004A0AF0EE6A0ACDE9060108F099FB53EC03
:101FB000102B3046CDE90823FEF72EFBDDE9082380
:101FC000FEF7CCF9974B03EB8404D4ED007AC7EE0F
:101FD000887ACDE9080117EE900AFEF71DFB41EC67
:101FE000100B41EC1A0B08F0D3FB53EC102BDDE97E
:101FF0000601CDE90C23FEF72BFEFEF70DFBDDE914
:102000000C23FEF7ABF9FEF723FEB0EE4A0AF0EE22
:102010006A0A074608F064FB53EC102BDDE908015F
:10202000CDE90623FEF714FEFEF7F6FADDE90623F6
:10203000FEF794F9FEF70CFE039B0233064603936A
:10204000022D00F03E810135012D83D1059B002B2F
:10205000F9D00024032382E7072003F0D1FB69E4D1
:102060007148007800283FF459AC0A8000210A46E4
:102070000F2006F0F5FD33E49FED6C7AF4EEC77A9D
:10208000F1EE10FA3FF70EAF002F40F0A1811620BD
:1020900006F00EFE664BD4ED007AD3ED006A9FED9C
:1020A000657A654B9FED658AC6EEA76A19203C46A6
:1020B00067EE877AC3ED007A27EEA67A604B83ED50
:1020C000007A06F0F5FD05F0A3FA5E4B4FF480426E
:1020D0001A8308F09DF985ED000A16E005F060FB13
:1020E00007EE904AF8EEE70AF0EE087A60EEA70AEB
:1020F0009FED5C0AC0EE880A0134B0EE401A05F08C
:1021000097FB44F252639C420FD04F48052101F0E7
:1021100017FF07460028E1D00A230393494B039891
:102120004FF480425A835A83EAE508F071F99FED33
:102130004D8A464EDFED46AA03973D468BED000AD9
:1021400008F066F940F2DC548BED000A0BE005F074
:1021500027FBB0EE480AF0EE080A9FED421A05F0A0
:1021600067FB013C07D03848052101F0E9FE002853
:10217000EDD00A23039308F04BF9364B8BED000AA0
:1021800005EB450503EB850508242F48052101F0E3
:10219000D7FE0028C0D105F003FBB0EE480AF0EEF0
:1021A000080A9FED301A05F043FB2B48294630F80A
:1021B000023B0A68B042134441F8043BF7D1013CAA
:1021C000E3D101377E2F039B00F0CB80002BA5D1FC
:1021D00008F01EF907EE907AB8EEE7AADFED1F7A55
:1021E0001F4D8BED000A6AEE277AB3EE027A77EE86
:1021F000A77A85FB072387EE87AAFD17C5EBA30502
:1022000005EBC505A7EB4505B4EE4A8AF1EE10FAD9
:102210004FD0039C45E000BFB83B00203C4100206C
:10222000A41C00208C3B00208C3A00206F12833AC3
:102230003808002000007A445808002000A48C468A
:10224000D4390020000802403C080020E62C002081
:102250000080BB44282F0020E02C0020DB0F4940E9
:10226000398EE3380000000005F09AFA07EE904A34
:10227000F8EEE77AB7EE000AC7EEAA7A0134F0EE7C
:10228000080A30EE670A6AEE277A28EE000A1FED88
:102290000B1A30EE270A05F0CBFA40F2DC539C42D1
:1022A00007D07A48052101F04BFE0028DCD00A2334
:1022B0000393B0EE4A8A43E703F07AF80494FFF7F9
:1022C00039BB039B022B34463E460B9F7FF7BBAACC
:1022D0003046FEF7A1F941EC1A0B2046FEF79CF9B7
:1022E000B0EE4A0AF0EE6A0A41EC110B08F0A8FAC7
:1022F000674B186855EC104BFEF78EF902460B46FB
:1023000020462946FEF728F8624B044618680D4619
:10231000FEF782F902460B4620462946FEF7D0F921
:10232000FEF796FC5C4B186006F0FAFCFFF78BBAE0
:102330009BED000A98ED007A20EE2A0AF7EE007A6B
:1023400087EE800A77EE277A60EE280A20EE270AC9
:1023500007F00EFE74E50420014603F0D9F8FFF7FC
:1023600067BA002B7FF4DAAE4C48041D00F1D805A3
:1023700054F8043C4A4A82FB03121A44DB17C3EBAD
:10238000621344F8043C42684549836881FB02615A
:102390001144D217C2EB61124149426081FB0361D3
:1023A0001944DB17C3EB611383600C30A84204F1BE
:1023B0000C04DDD13B4B4FF480425A8318205A83E2
:1023C00006F076FC06F034FE02F0F2FFFFF784BB65
:1023D000384691E4207081F31188334B3A704FF402
:1023E0000015B0224FF48001304C83F813234FF4D2
:1023F000002E4FF48016C3F880E1C3F800E083F8A4
:102400001423C3F880611E6083F81523C3F880513C
:102410001D6083F81623C3F880111960216CFB6AD4
:10242000234A7A6041F00071216418605968CD0731
:1024300009D40121082001F01BFDFB6A1D4A5968DF
:10244000CC07F6D5526851681B481268D961032140
:102450001A6000225861397082F31188174B1848AE
:102460004FF41471812204F0C3F9164B16484FF44F
:10247000E871872204F0BCF9FFF7FFB85569134CE7
:10248000B4FBF5F4A4B21C81FFF7B0B83C080020FF
:1024900074260020A41C002000260020282F0020E5
:1024A000932449920008024000E100E00038024015
:1024B00080C60108584100205B870100215D0108AA
:1024C00008180020D1940108781A002000BD0105E9
:1024D000BB4DBC4B6A6D9969936BBB482DE9804835
:1024E00023F4002388618DB0936343F6982001F0B4
:1024F0004FFD202080F311882F78B44B6B60012FA3
:102500004FF00003EB602B616B61AB616C6D00F011
:102510008A860DF1180B02232B70002383F3118898
:102520006A6DAB4E936B43F400239363202383F3D4
:1025300011884FF0FF325946A64801F0C1FC002334
:1025400083F31188002840F07F85069D002D00F060
:102550007B852978044603278C4280F28A802A19D9
:10256000631C52789C18A142C0F2588405EB030802
:1025700008F1010A002AEFD098F80190B9F11B0F79
:1025800000F2568401A353F829F000BF5925010831
:102590005F2C0108AD2C010859250108C32D010845
:1025A000A92B01085925010859250108FF2C01080C
:1025B00059250108D9290108592501083B29010895
:1025C00063280108D7280108D7280108FF26010839
:1025D0005925010859250108932701089726010864
:1025E000FD2501086D290108972A0108E92701083E
:1025F000412A0108512B0108F92A0108052A40F057
:10260000A484754B1A78002AA6D09AF801803078F5
:10261000404502D1B8F1000F9ED19AF802309AF8E5
:10262000042001939AF80390029204F051FB0028D1
:1026300000F08C859DF8043090F800E0B0F804C0FC
:10264000037208F03F0343F4A8630EF0CF0263F374
:102650000A0C67F303029DF8083080F80990837232
:10266000A0F804C0027004F0A3FB29788C42FFF6A6
:1026700076AFA1420AD0307804210022022306F06E
:1026800077FB564B554A1B68013313602946544863
:1026900003F0B6FF4AE7032A40F017844E4B1A783E
:1026A000002A3FF459AF9AF801803278424503D1AD
:1026B000B8F1000F7FF450AF9AF8029019F10009B9
:1026C00018BF4FF0010904F003FB002800F09985C2
:1026D0000278B0F804E080F8089008F03F0343F473
:1026E000A06363F30A0E02F0CF02012363F3030237
:1026F000A0F804E0027004F05BFB29782CE7022AC2
:1027000040F0C7839AF801903278914502D0B9F130
:10271000000F1CD1334B197801F0FF0E002940F057
:10272000D98405208DF81920014610228DF81A0051
:1027300058468DF818708DF81CE08DF81B2003F0BA
:102740005FFA9AF801903278914500F00D81002AE5
:1027500000F00A8104F0BCFAA0B10178B0F804E0FE
:1027600009F03F0343F4806301F0CF0163F30A0EE5
:102770006FF30301A0F804E0017004F019FB0028D6
:1027800040F0F28098F801308DF81C303278102338
:1027900050E1022A00F05E8330788DF81870012134
:1027A0008DF81C2013238DF819008DF81A10584647
:1027B00005218DF81B3003F023FA2978CCE600BF01
:1027C000E82C00200430002090C7010880C70108D1
:1027D00054410020A831002078260020103A002023
:1027E00080300020891C00200C2A40F0A683C04BBA
:1027F0001A78002A3FF4B0AE9AF80180307840454C
:1028000003D1B8F1000F7FF4A7AE9AF80230DAF8DE
:10281000042001930292BAF8089004F059FA014694
:10282000002800F0A184029A90F800E0B0F804C0FB
:10283000826008F03F03A0F80C9043F4C0630EF0F0
:10284000CF024FF0070E63F30A0C6EF303029DF8FC
:1028500004308B73A1F804C00A7004F0A9FA297837
:102860007AE60A2A40F08D83A24BDAF802901868C3
:10287000814500F0EE839E4B1A78002A3FF46CAE3F
:10288000DAF806309AF80180019304F021FAD8B101
:1028900090F800E0B0F804C0019BC0F8089008F080
:1028A0003F0141F450710EF0CF0E4FF0080861F374
:1028B0000A0C68F3030EC360A0F804C080F800E0BF
:1028C00004F076FA00284FD19AF801308DF81C30C8
:1028D00032780D23AEE0022A40F0FF829AF8012000
:1028E0003078824200F07C83002A00F07983804BAC
:1028F0001B78002B3FF430AE002835D0019204F055
:10290000E7F9019A90B10178B0F804E002F03F02D3
:1029100042EA891901F0CF0269F30A0E6FF303024C
:10292000A0F804E0027004F043FAE8B998F8013026
:102930008DF81C3032780E237CE00B238DF8183094
:102940006C4A6C4B31785B6812688DF819105846E8
:102950000A21CDF81E30CDF81A2003F051F9644B4E
:102960001B78002B40F015832978F5E5082A40F004
:10297000D4825F4B1A78002A3FF4EEAD9AF80190AA
:1029800032784A4503D1B9F1000F7FF4E5ADDAF8AA
:1029900004309AF80280019304F09AF90246002864
:1029A00000F0F083019B01788360B0F804E080F8C8
:1029B0000C8009F03F0343F4B06301F0CF014FF006
:1029C000040C6CF3030163F30A0E1170A2F804E027
:1029D00004F0EEF92978BFE5042A40F0BE829AF8A7
:1029E00001103278914200D089B909218DF8181070
:1029F0008DF81920BAF80220ADF81A2004215846A3
:102A000003F0FEF89AF8011032789142ACD0002A17
:102A1000AAD0374B1A78002AA6D00A20BAF802208A
:102A200007F04EF900289FD19AF8013032788DF8DE
:102A30001C300A2358468DF818708DF81A702CE156
:102A4000022A40F3F8822A4B187800283FF484AD1C
:102A50009AF801803078804503D1B8F1000F7FF4F7
:102A60007BAD033A5FFA82F9B9F1070F9AF80210C9
:102A700040F2088319238DF81900052158468DF876
:102A800018708DF81A708DF81C808DF81B3003F0CB
:102A9000B7F8297860E5082A40F04782144B1A7885
:102AA000002A3FF459AD9AF8019032784A4503D193
:102AB000B9F1000F7FF450ADDAF804309AF80280D3
:102AC000019304F005F90246002800F05483019BAD
:102AD0000178836009F03F03B0F804E080F80C80CF
:102AE00043F4B86301F0CF014FF0050C69E700BF74
:102AF00078260020802600200C2A40F0FE81CA4B58
:102B00001A78002A3FF428AD9AF8018030784045C1
:102B100003D1B8F1000F7FF41FAD9AF80230DAF854
:102B2000042001930292BAF8089004F0D1F801460B
:102B3000002800F06D83029A90F800E0826008F0AF
:102B40003F03B0F804C0A0F80C9043F4D86376E6D5
:102B50000C2A40F0CA81B44B1A78002A3FF4FCAC2E
:102B60009AF801803078404503D1B8F1000F7FF426
:102B7000F3AC9AF80230DAF8042001930292BAF822
:102B8000089004F0A5F80146002800F0E682029AB9
:102B900090F800E0826008F03F03B0F804C0A0F8AD
:102BA0000C9043F4D0634AE6082A40F07A819AF800
:102BB00001803278904500F02882B8F1000F00F0D3
:102BC0002482994B187800283FF4C6AC002A3FF4C1
:102BD000C3ACBAF904C0CDF80CC0BAF906109AF823
:102BE0000230029101939AF8039004F071F8019B6E
:102BF0000299DDF80CC0F0B190F800E0A0F808C030
:102C000008F03F08B0F804C041810EF0CF0E48F440
:102C1000A0714FF0060861F30A0C68F3030E03730A
:102C200080F80D90A0F804C080F800E004F0C0F82F
:102C300000287FF499AE9AF8011033788DF81C10B3
:102C40000522114658468DF818708DF81A708DF8C7
:102C50001B208DF8193002F0D3FF29787CE4032A79
:102C600007BF9AF802809AF801904FF002084FF0DF
:102C700000094146042002F04BFC4846414603F05F
:102C80009FFC00287FF470AE32788DF81C008DF820
:102C9000187001238DF81A70584605218DF81920F7
:102CA0008DF81B3002F0ACFF297855E45E4B1B78A1
:102CB000002B3FF451AC5D4B4FF000021A7004F052
:102CC00007F880B10278818802F0CF024FF0800EC1
:102CD0006FF303026EF30A010270818004F068F85A
:102CE00000287FF441AE4FF0000132788DF8187063
:102CF000022358468DF81A708DF81C10CDE7042A6F
:102D000040F003819AF801803278904502D0B8F102
:102D1000000F2DD1BAF802108DF81920CAB2104652
:102D20004FF0070EADF81A20002304A907AA049358
:102D30008DF818E004F0D4F8002840F0D581BAF8F6
:102D4000022030788DF81C20022108228DF819000D
:102D50008DF81A10584605218DF818708DF81B2033
:102D600002F04EFF9AF80180327890453FF4FCADB6
:102D7000002A3FF4F9ADBAF8029003F0A9FFC8B1F8
:102D800090F800E0B0F804C080F8089008F03F0226
:102D900042F4007262F30A0C0EF0CF0E012262F3CD
:102DA000030EA0F804C080F800E004F001F8002849
:102DB0007FF4DAADBAF802308DF81C30327808238F
:102DC00038E6032A40F32E819AF8013030788342A6
:102DD000A2F1040947D0002B45D0134A1278002AEB
:102DE0003FF4BAAB00283FF4BFADB9F1070FBAF812
:102DF000028040F3D78131788DF819100423052122
:102E000058468DF818708DF81A708DF81C808DF862
:102E10001B3002F0F5FE2978FFF79EBB30780421C5
:102E2000002201232BE400BF78260020881C00200C
:102E30004FF0000133788DF81A10584605218DF8AF
:102E400018708DF81B908DF81C208DF8193002F049
:102E5000D7FE89E59AF80130CE4A003318BF012326
:102E60001370FFF779BBBAF802000AF10401C0B28F
:102E70004A4606F0BDFB002800F03C81C54B1A789D
:102E8000002A3FF471AD9AF8013030788342A9D11D
:102E90006AE530788DF8187001218DF81C20102318
:102EA00081E4052319468DF81C208DF81B303278FB
:102EB0008DF81870012358468DF819208DF81A30B6
:102EC00002F09EFE2978FFF747BB30788DF8187026
:102ED00001218DF81C20142365E430788DF81870DA
:102EE00001218DF81C200E235DE430788DF81870D8
:102EF00001218DF81C201A2355E430788DF81870C4
:102F000001218DF81C201B234DE430788DF81870BA
:102F100001218DF81C20082345E430788DF81870C5
:102F200001218DF81C2016233DE430788DF81870AF
:102F300001218DF81C20172335E430788DF81870A6
:102F400001218DF81C2018232DE430788DF818709D
:102F500001218DF81C20152325E431788DF81910F6
:102F60000A230122052158468DF818708DF81A2081
:102F70008DF81B308DF81C3002F042FE2978FFF7E7
:102F8000EBBA30788DF8187001218DF81C200D23D4
:102F900009E403F09DFE80B10278818802F0CF023F
:102FA0004FF4407E6FF303026EF30A0102708180DA
:102FB00003F0FEFE00287FF4D7AC4FF0000132781A
:102FC0008DF814100C2304A805218DF810708DF8CD
:102FD00012708DF811208DF8133002F011FEC3E449
:102FE000B9F10F0F40F09A8006F04AF9002840F03E
:102FF0009A80684B1A78002A3FF4B6AC9AF8012000
:10300000307882427FF478ACAEE49AF803109AF8F4
:103010000200BAF90420BAF9063005F0B1FC2978AB
:10302000FFF79ABA30788DF8187001218DF81C20BE
:103030000423FFF7B8BB30788DF8187001218DF8A4
:103040001C201923FFF7AFBB642000F0A1FFFFF79E
:103050006DBADAF806E0586886457FF40CAC9AF849
:1030600001303370114658460B228DF81930CDF8D7
:103070001A90CDF81EE08DF8182002F0C1FD2978D5
:10308000FFF76ABA019103F023FE01990346002875
:1030900000F0C580027801728088019308F03F013A
:1030A00041F4C86161F30A0002F0CF0209F10101A5
:1030B00061F3030298800AF103011A7003F1090019
:1030C0004A46FDF715FE019B184603F071FE29786C
:1030D000FFF742BA304B1A68304B1A60304B1A6017
:1030E00005F01EFEFFF72DBB04995846043102F08F
:1030F00087FD37E6BAF8022030788DF81C200221CF
:1031000004228DF819008DF81A10584605218DF803
:1031100018708DF81B2002F073FDAFE605F088FFF4
:1031200000283FF466AF042196F800E08DF81C00FB
:103130000F228DF81A10584605218DF818708DF859
:1031400019E08DF81B2002F05BFD52E79AF8013080
:103150008DF81C30327815236CE49AF801308DF824
:103160001C3032781A2365E49AF801308DF81C304F
:10317000327818235EE49AF801308DF81C303278EA
:10318000172357E49AF801308DF81C303278162353
:1031900050E400BF78260020884100206C260020E3
:1031A00000260020019303F093FD019B844628B381
:1031B000017880F80880BCF804E0CDF804C003F082
:1031C0003F0040F4807001F0CF0209F1010160F38B
:1031D0000A0E61F303028CF80020ACF804E00CF155
:1031E00009004A460AF10401FDF782FDDDF804C03A
:1031F000604603F0DDFD00287FF4B6ABBAF802802C
:10320000F9E59AF801308DF81C303278142311E476
:103210009AF801308DF81C3032781B230AE49AF8B2
:103220000180307826E4444A4449566BDFF820A1F7
:10323000DFF8209146F08006566356694FF0080E7D
:103240004FF4341C4FF0E00B46F080064FF0C008FE
:103250005661536181F843B3C1F888E1C1F808E0D1
:10326000C4F80CA0C4F800982B66C4F8003EC4F85B
:103270000080C4F838C000F09BFE27612369DB079B
:10328000FCD4122000F094FE2369002BFCDAAB6D15
:103290006E6DD3F808E000231A46A36019464FF07C
:1032A000FF3706EB421301327245C3F800194FF0A5
:1032B0000000C3F81019C3F80879C3F8001BC3F85D
:1032C000101BC3F8087BECD96B68DB684FF0011268
:1032D000C6F81C28C4F81008C4F81408C4F81C0860
:1032E0007BB1174BA361AB6E164E4FF0FF3262619C
:1032F0000DF1180B43B1A36843F00103A360FFF77E
:103300000AB9114BA361EEE7DFF84CE00F4BCDF8A3
:1033100018E006F510710222584606F17007089170
:1033200009920A930B96079700F04AFB00F0F0FB16
:10333000B06600F0ADFBDEE70038024000E100E0DF
:10334000083C30C0E82C0020003C30C0D1410108CE
:103350004014004003002002A0C701080000000044
:10336000064A536823F001035360EFF3098368337F
:1033700083F30988002383F31188704730EF00E05E
:10338000F0B4202383F311880D4E376874684D1E06
:103390003A442B18494250190B4008400344A342B9
:1033A00007D89F4205D83360002383F31188F0BC0F
:1033B00070470020002383F31188F0BC704700BFE2
:1033C00024140020000000000000000000000000A5
:1033D00010B4202383F3118890F82030072B0ED8E7
:1033E000DFE803F0280D0D2408040D08426A9368F5
:1033F0000133936090E80C001A60026853604FF04C
:10340000FF34002281680E4B446280F820201B6844
:103410009A688A42FBD25A684260036000211060B9
:10342000586081F311885DF8044B7047436A0022AD
:103430001A60E4E7002383F311885DF8044B7047BA
:103440000430002000000000000000000000000028
:10345000FEE700BF000000000000000000000000C8
:10346000F0B500EB81060789D6F80CE00126DEF8FE
:1034700014408E403E4300270681A26084E8880005
:10348000BDE8F04001F05CBC00000000000000005E
:10349000F0B500EB81064789D6F80CE00126DEF88E
:1034A00018408E403E4300274681A26084E8880091
:1034B000BDE8F04001F09CBC0000000000000000EE
:1034C000F8B590F83430044613B1002380F8343056
:1034D00004EB81016268CB681B6A19685B68A364AE
:1034E0006164936813B320469847F8B1E56B94F88C
:1034F000443094F84B1094F84A2042EA0122AA4240
:103500003CBFE26315461B067CD4002D6AD10B2319
:1035100084F83430202383F31188204629462A4634
:103520002B46FFF79DFF85F31188F8BD94F84430D2
:1035300013F0600616D0626DD2F80039616843F46A
:103540000013C2F80039D2F8003B0D6843F40013B1
:10355000C2F8003B15B120460621A847062384F88F
:103560003430F8BD94F8455003F07F0242EA052557
:1035700040F20232954200F036811DD8022D00F053
:103580001C8140F2EE80B5F5817F00F0F380B5F547
:10359000407F69D0B5F5807FCDD194F84620012ACF
:1035A000C9D1B4F84C20A66322F00202E663266477
:1035B0003546A4F84C209CE740F20162954241D97F
:1035C000B5F5106F60D040F60242954200F0EE80F3
:1035D000B5F5006FAFD104F14F0201252664A26357
:1035E000E56386E7152384F83430202383F31188BC
:1035F0000021E36BA26B2046FFF74AFF002383F311
:103600001188F8BD7DB1092384F83430202383F379
:1036100011880021E36BA26B2046FFF721FF0023F6
:1036200083F31188F8BD142384F83430202383F306
:103630001188204629462A462B46FFF729FF85F3A5
:103640001188F8BDB5F5C06F35D2B5F5A06F7FF420
:1036500072AFB4F84420B2F5A06F00F0E08000250E
:10366000A563E563256444E794F84620012A7FF4C6
:1036700062AFB4F84C20A66342F00202E66326640F
:103680003546A4F84C2034E794F8462094F84F10BF
:103690009142E4D02378042B26D04AB1636884F8A1
:1036A0004F201B680422227013B120460221984744
:1036B00094F84430D3E7626894F8490094F84830AD
:1036C000556894F8471094F8462043EA00232046B2
:1036D000A84700283FF42FAF43680568E563A3635C
:1036E000266494F8443004E7202383F31188A06D06
:1036F000218963890268E26501F0010103F0010399
:10370000676DD0F808E02181324626616661A661C6
:10371000638131464FF0FF3007EB421301327245AF
:10372000C3F800194FF00005C3F81019C3F80809D1
:10373000C3F8001BC3F8101BC3F8080BECD94FF0FB
:103740000113C7F81C3885F31188636884F84F505B
:103750001B68032121700BB12046984794F846203E
:103760009BE705BB022204F14C012564A163E263DF
:103770001546BEE694F84620002A7FF4DCAE94F8A5
:10378000482012F00F013FF46AAF636D03EB411361
:1037900011065CD4D3F8002B22F40012C3F8002BDE
:1037A00094F844305BE7012D7FF4C5AE314AA26343
:1037B00002250022E56322649BE694F8482002F08B
:1037C0000F0117064CBF483158314901626D5158FD
:1037D00008047FF5B1AE11F400111BD1264AE56350
:1037E0002164A26385E694F84620002A7FF4A3AE04
:1037F00094F8482012F00F013FF431AF636D1206C8
:1038000003EB41132CD4D3F8002B42F40012C3F87D
:10381000002B4DE7194AE5632664A26369E694F834
:103820004610626D84F84E10D2F80038606823F4B8
:10383000FE63056843EA0113C2F8003815B120465B
:103840000121A847032294F84430227007E7D3F8F7
:10385000002922F40012C3F8002994F84430FEE64F
:10386000D3F8002942F40012C3F8002994F8443038
:10387000F5E600BFB0C70108C0C7010850C801087D
:10388000202383F31188124B5B6813F4006302D189
:1038900083F311887047F1EE103AEFF309830D4A74
:1038A0004FF08071D26843F8082C43F84C1CA3F108
:1038B000680282F30988084A1168926989689268E7
:1038C00091428CBF054A064A43F8502C704700BF0E
:1038D00000ED00E030EF00E0043000204903010873
:1038E0004C03010800000000000000000000000080
:1038F000037DBBB90369002B17DDC368426810B5AF
:10390000043353F8044CC360934228BF03680C602F
:1039100028BFC3600369013B0361183002F0B0FFA8
:10392000002010BD6FF0010070474FF0FF3070476E
:1039300038B5037DB3B9056842680369541BC3EB0E
:10394000A403002B11DD8468231D83602160934252
:10395000036928BF856001330361203002F090FFC6
:10396000002038BD6FF0010038BD4FF0FF3038BD8A
:103970000E4B0F495A688368F0B44F6F4168C668B0
:10398000D0E90445D31ADB1BE4180268836045F1D3
:1039900000058B4206F1010688BF43609342C66072
:1039A000C0E9044538BF0360F0BC7047001000E078
:1039B00004300020000000000000000000000000B3
:1039C00083684168D0F80CC01E4A2DE9F0040469F0
:1039D00043F86C4C0227446943F8684C046803F8C8
:1039E000287C0020012703F8267C03F8270C556962
:1039F00043F8304C43F82C1CA3F11C07A3F14801F9
:103A0000114E43F84C6CA3F1AC0AA3F1200443F827
:103A10003CAC43F8100C43F8140C43F8345C43F806
:103A200040CC43F80CCC43F8382C0846296151614E
:103A300043F8204C43F81C7C43F8187CBDE8F004A4
:103A4000704700BF04300020390301080000000067
:103A50000E4A106870B4036894691360012600254B
:103A6000A1685A6080F82060906184F8205000E0DE
:103A70001B689A688A42FBD85A68626023602146B4
:103A800014605C6070BCFCF74BBC00BF04300020CD
:103A9000104A70B4106894698368A1688B4201D899
:103AA00070BC704703681360012600255A6080F8D7
:103AB0002060906184F8205000E01B689A68914271
:103AC000FBD35A6862602360214614605C6070BC5E
:103AD000FCF726BC043000200000000000000000BD
:103AE000084B30B41A689969146881F820000125E0
:103AF000636082F820501C60104630BC9A61FCF76D
:103B00000FBC00BF043000200000000000000000D7
:103B100000228168084B10B4044680F820201B68FE
:103B20009A688A42FBD25A68626023602046146019
:103B30005C605DF8044B704704300020000000001A
:103B4000F8B50468A04222D00E460746002502E0E0
:103B50002468A7421BD0E3683343E36016B12269AF
:103B60001342F5D06068A368416B90F820200B43A6
:103B70000A2A43630CD00B2AEAD1426A13409A42C4
:103B8000E6D14562FFF7C4FF2468A742E3D1F8BD40
:103B9000426A1342DCD04562FFF7BAFFF4E700BF88
:103BA000174B70B59D69202383F311880468C3689F
:103BB000AB63A0421DD0E96B4BB11A68934203D0AE
:103BC0009268914238BF1146DB68002BF5D103465D
:103BD0002268A66BA96020461A6053609C60DE6074
:103BE000A363FFF795FFFFF753FF002383F31188CB
:103BF00070BD00238360002383F3118870BD00BF74
:103C00000430002000000000000000000000000060
:103C100070B5202383F31188324B82689C69002A97
:103C200058D0A16893689942054607D992F8203088
:103C30009160062B35D0072B1FD0ABB12B4603E08C
:103C40009968A268914202D31B689D42F8D15A68D4
:103C500062602360062014605C606562FFF740FFCD
:103C6000002383F3118870BD92E80A00196011687F
:103C700010464B60FFF74CFFE0E792E80900186040
:103C8000566A10684360334602E09868814202D861
:103C90001B689E42F9D15968516013600A605A60EE
:103CA000CCE792E809001860566A10684360334612
:103CB00002E09868884202D31B689E42F9D1596895
:103CC000516013600A605A60B268A16893689942B3
:103CD000ACD8B3E7A36BC36084600023A06383F315
:103CE000118870BD043000200000000000000000BA
:103CF00083680133002B836000DD704703681A6816
:103D000002600021506018465962FFF701BF00BFF2
:103D100003682BB10022026018465962FFF7F8BE13
:103D2000704700BF0000000000000000000000001D
:103D300038B52022034682F31188104A9469A06A9C
:103D4000636204F12805A84206D00368A362FFF766
:103D5000DFFEA06AA842F8D194F8223043B994F863
:103D600021309B0704D1636922691A61226953617A
:103D70000F20BDE83840FFF7B3BE00BF043000207D
:103D80001A4BDA69824210B410D0416802680A60A6
:103D900002681C3300249A425160C46003D08368D7
:103DA00091680B4493605DF8044B704718461168A6
:103DB00040F81C1F002481424860D46011D09468F0
:103DC0008A68986AA3184FF080448B60616A0A1A67
:103DD0009342E8D99B1A012B98BF02230B446363DB
:103DE000E1E74FF08043DC60DDE700BF04300020F6
:103DF000F0B51C4D2E464FF0804756F81C4F03611E
:103E0000012998BF0221B442C2607B6A1BD0AA6A12
:103E10009B1AC918A36811D32468C91AA3688B42D6
:103E2000FAD3636843600460186060608160A368CF
:103E30004FF0FF32591AA1606A62F0BD9942EED28A
:103E40000A447A63EBE701EB030E00260222AB6221
:103E5000E8612862046044608160C7F834E03E6134
:103E6000FA60F0BD043000200000000000000000F7
:103E700030B54B1C87B012D00C4C0D4AA3690546D7
:103E800001A8FFF7B5FF2846FFF72AFE049B13B1F0
:103E900001A8FFF775FFA369586A07B030BD034C4E
:103EA000FFF71EFEA369586A07B030BD043000203A
:103EB000D1330108000000000000000000000000F5
:103EC0002DE9F8430446DFF874808946164600F170
:103ED000200709E0D8F81830656A5D601F602B6024
:103EE0006362FFF7C5FF38BB237D0420314643B929
:103EF0002369002B09DC002EECD14FF0FF30BDE828
:103F0000F8836FF00100BDE8F883E3686268196820
:103F100003449342E360C9F8001024BF2368E360C0
:103F20002369013B04F11800236102F0A9FCFFF7AB
:103F3000AFFD0020BDE8F883BDE8F8830430002021
:103F4000202383F311888268531E002B836004DBD7
:103F50000020002383F31188704710B579B10A4A15
:103F6000926950624468034682E818000520226086
:103F70005A60FFF77DFF002383F3118810BD826034
:103F80004FF0FF30F7E700BF0430002000000000D2
:103F900008B50146202383F311880820FFF768FF46
:103FA000002383F3118808BD00000000000000001A
:103FB000034A516853685B1A9842FBD8704700BFA8
:103FC000001000E000000000000000000000000001
:103FD0002DE9F8430FFA81F800EB88078146FA6073
:103FE00050690D46144618B10021102208F0E0FA7D
:103FF000A06918B10021102208F0DAFAFB68D9F89C
:1040000054401A6802F00302022A55D0032A55D000
:10401000464E4749012A18BF0E466A019969A01801
:104020004FF0000EC0F810EB00296BD0588A05F154
:10403000580149013043605005F1100ED4F81C08B6
:10404000012101FA0EF10143C4F81C1822445969F8
:104050000020C2F8100999B3998B1A8A01294FEAF6
:10406000920388BF4B4305F13F00D9F85C1004EB85
:104070008000AA0103EB010E42F0200241EA034353
:10408000C9F85CE04360226123699A06FCD41220DF
:10409000FFF78EFFFB681A8A05F148035B0142EACD
:1040A00085523243E2500123D4F81C28AB4013431D
:1040B000C4F81C38BDE8F8831E4EAEE71E4EACE7D0
:1040C00005F13F0204EB8202AB011C49516043F051
:1040D0002003236123699B06FCD404EB48181220BB
:1040E000FFF766FFD8F8002922F40042C8F800293B
:1040F000D4F81C280123AB4022EA0303C4F81C387F
:10410000BDE8F88304EB481105F1100ED1F8000B5F
:1041100020F40040C1F8000BD4F81C08012101FA7A
:104120000EF120EA0101C4F81C188FE7008004108A
:10413000008000100080081000800C1000040002B5
:10414000FEE700BF000000000000000000000000CB
:10415000F0B4114E002506F1800796E81A00A3423C
:104160000DD204391A4651F8040F42F8040BA2424A
:10417000F9D3DA43144424F0030404342344F268EA
:10418000934203D243F8045B9342FBD31036BE4202
:10419000E3D3F0BC704700BFD0C7010800000000A7
:1041A000FEE700BF0000000000000000000000006B
:1041B000704700BF00000000000000000000000089
:1041C000704700BF00000000000000000000000079
:1041D0002DE98048044683B02023D0F854A083F30F
:1041E000118800F1640301932378012B05D0236E1D
:1041F0008BB9DAF81430DE060DD4DAF81830704ACC
:1042000043F010039269CAF81830019B62660320DC
:104210005362FFF765FC002383F311884FF0010917
:104220001F46DAF8143013F010034DD0666D336A70
:1042300003F4F011B1F5802FC3F30A1203F00F035A
:104240001AD0B1F5402FECD104EB8303DB68186A78
:10425000002AE6D0002106F580560B4601E0934285
:10426000DFD09D0708BF3168072B03F10103F6D8A3
:104270000170090A0130F2E704EB8305EB689969E4
:1042800091E80910C3EB000E82B3002106F58056B9
:104290000B46604613F0030F08BF31689E4503F1DB
:1042A000010302D90170090A01309342F2D1EB688F
:1042B000996988684B6810441A44DAF814308860A9
:1042C00013F010034A60B1D1226E09FA07FE1EEA0C
:1042D000020F0DD107F1010BA36D9B685FFA8BF7FD
:1042E0009F429ED9202383F311887DE76046E2E751
:1042F000202282F31188DAF80810226E21F00101E1
:1043000022EA0E02CAF80810226683F3118804EB31
:104310008703D86845696A682B6893424CD9616DF8
:10432000B0F810C001EB47169A1AD6F81839624552
:1043300028BF62469BB2B2EB830F07F1010B23D873
:10434000A868009401EB0B3103680B60042A07D9BD
:1043500013460746043B57F8044F0C60042BF9D86A
:104360006B682F68134410449F42A8606B6020D98B
:10437000FA1AD6F81889624528BF62461FFA88F8EB
:10438000B2EB880FE0D9009C0022202383F3118830
:10439000DAF8083043F00103CAF808302AB9DAF82D
:1043A00034384EEA0303CAF83438002383F3118803
:1043B00092E7009C0122E8E707F1010BFAE700BF52
:1043C0000430002000000000000000000000000099
:1043D000084B09485968826F890D01F03D0110B5FD
:1043E0008C05DC600AB1C06F9047BDE81040FFF754
:1043F00047BA00BF006402402C14002000000000F7
:10440000084B09485968026F090C01F03D0110B5CD
:104410000C04DC600AB1406F9047BDE81040FFF724
:104420002FBA00BF006402402C14002000000000DE
:10443000084B09485968826E890901F03D0110B5A1
:104440008C01DC600AB1C06E9047BDE81040FFF7F8
:1044500017BA00BF006402402C14002000000000C6
:1044600008B5074B07485968026E01F03D01D96055
:104470000AB1406E9047BDE80840FFF701BA00BF9F
:10448000006402402C140020000000000000000026
:10449000084B09481968826D890D01F03D0110B57E
:1044A0008C059C600AB1C06D9047BDE81040FFF7D5
:1044B000E7B900BF006402402C1400200000000097
:1044C000084B09481968026D090C01F03D0110B54F
:1044D0000C049C600AB1406D9047BDE81040FFF7A6
:1044E000CFB900BF006402402C140020000000007F
:1044F000084B09481968826C890901F03D0110B523
:104500008C019C600AB1C06C9047BDE81040FFF779
:10451000B7B900BF006402402C1400200000000066
:1045200008B5074B07481968026C01F03D01996016
:104530000AB1406C9047BDE80840FFF7A1B900BF41
:10454000006402402C140020000000000000000065
:10455000084B09485968826B890D01F03D0110B57F
:104560008C05DC600AB1C06B9047BDE81040FFF7D6
:1045700087B900BF006002402C140020000000003A
:10458000084B09485968026B090C01F03D0110B550
:104590000C04DC600AB1406B9047BDE81040FFF7A7
:1045A0006FB900BF006002402C1400200000000022
:1045B000084B09485968826A890901F03D0110B524
:1045C0008C01DC600AB1C06A9047BDE81040FFF77B
:1045D00057B900BF006002402C140020000000000A
:1045E00008B5074B07485968026A01F03D01D960D8
:1045F0000AB1406A9047BDE80840FFF741B900BFE3
:10460000006002402C1400200000000000000000A8
:10461000084B094819688269890D01F03D0110B500
:104620008C059C600AB1C0699047BDE81040FFF757
:1046300027B900BF006002402C14002000000000D9
:10464000084B094819680269090C01F03D0110B5D1
:104650000C049C600AB140699047BDE81040FFF728
:104660000FB900BF006002402C14002000000000C1
:10467000084B094819688268890901F03D0110B5A5
:104680008C019C600AB1C0689047BDE81040FFF7FC
:10469000F7B800BF006002402C14002000000000AA
:1046A00008B5074B074A196801F03D019960136886
:1046B0000BB150689847BDE80840FFF7E1B800BF6C
:1046C000006002402C1400200000000000000000E8
:1046D0002DE9F047874E756D6B69AF691F4017F480
:1046E00080596F6140F00A81002FC0F2E6803B05DF
:1046F00000F1D380BC040CD5D5F8083813F0060FB0
:10470000EB6823F470530CBF43F4105343F4A053ED
:10471000EB60380729D4FA022FD4BB0200F1938052
:10472000FE0600F18180D5F818483D030BD5E00363
:1047300000F17981A10300F17C81620300F17F81A6
:10474000230300F15D817F030BD5E60700F167814C
:10475000A50700F16081600700F15981210700F190
:104760004881BDE8F047FFF78BB87368DB68002B22
:10477000D1D060489847FA02CFD5D6F854800024AB
:1047800008E0B36D5B4A9B680134E4B29C42A146E9
:1047900000F2598108EB4412D2F8003903F44023A7
:1047A000B3F5802FEDD1D2F80039002BE9DAD2F839
:1047B000003943F09043C2F80039D2F80039002B99
:1047C000FBDB4FEA8919726D49F02003136113690D
:1047D0009906FCD41220FFF7EBFB06EB84034FF0A5
:1047E0000109DA683389926809FA04F96FEA090A5B
:1047F0000AEA0303338112B13E4821469047202341
:1048000083F31188D8F83428336E3B480AEA020251
:1048100049EA0303C8F8342800213366FFF778FA21
:10482000002383F31188ACE7202383F31188AB695D
:10483000314823F01003AB610021FFF769FA002330
:1048400083F311886FE7D6F8548000244FF00109F4
:1048500006E0B36D01349B68E4B29C423FF660AF62
:1048600008EB4412D2F8003B03F44023B3F5802F49
:10487000EFD1D2F8003B002BEBDA06EB8402738910
:10488000D2681C48D26809FA04F123EA0103738153
:104890002146002ADDD09047DBE7736832781B6839
:1048A00086F850200021052231663270002B3FF43B
:1048B00021AF1048042198471CE7D5F8003E9A071D
:1048C00005D0D5F8003E23F00303C5F8003E72681A
:1048D000D5F80438126896F85010317023F00103AF
:1048E000C5F80438002A3FF402AF0248052190477A
:1048F000FDE600BFE82C00204C2D00200023022103
:1049000020223366A6F84C3086F84E3086F84F30B9
:10491000F36033617361B36186F83430338173813E
:1049200031702A612B6913F02004FBD11220FFF7AC
:104930003FFBD6F858E0C5F834484FF00112DEF8D6
:104940000870C5F81C2823464FF000604FF0FF3177
:1049500005EB43120133BB42C2F80009C2F8000B59
:10496000C2F80819C2F8081BF2D9DEF80030F36566
:10497000DEF80020736D6A6210221A61196911F065
:104980001004FBD11220FFF713FBD5F80038716833
:10499000F26D0F68DFF8C4C02E4923F4FE63C5F83A
:1049A0000038AB6943F44023092002F1100843F0BA
:1049B00010034FF0C04E42F48012AB61C5F81008EE
:1049C000C6F85C80C5F81408C6F80CC0C5F810EB32
:1049D000C5F8001BC5F81049C5F80019AA62002FD8
:1049E0003FF4BFAE21461C48B847BDE8F047FEF78C
:1049F00047BF032002F00CF9BDE8F047FEF740BFC7
:104A0000032002F0B5F87F037FF5ABAE9DE60220F0
:104A100002F0FEF8A2E6012002F0FAF89BE6002080
:104A200002F0F6F894E6002002F0A2F8A1037FF568
:104A300084AE012002F09CF862037FF581AE022073
:104A400002F096F87CE6BB027FF56AAED2F854809D
:104A5000FBE600BF40800010E82C002060C8010881
:104A600038B5154DEB6A5C685C60220711D46307AA
:104A70000BD5EA6A2023916983F311880F48090452
:104A8000FFF75EF8002383F31188BDE83840FEF796
:104A9000F7BE1A68284622F00202032100F8281BFC
:104AA00020211A6081F311880021FFF749F80023C3
:104AB00083F31188DBE700BF5841002078410020D4
:104AC00038B5154DEB6A1C69A20711D1E3060BD569
:104AD000EB6A10211961202383F311880F48FFF737
:104AE0002FF8002383F31188BDE83840FEF7C8BED5
:104AF0005A6922F010025A61202383F3118805F1CC
:104B0000100001F0CDFE05F118000221FFF718F8A2
:104B1000002383F31188D9E7584100207841002011
:104B200038B5154DEB6ADC68A20711D1E3060BD549
:104B3000EB6A1021D960202383F311880F48FEF718
:104B4000FFFF002383F31188BDE83840FEF798BECD
:104B50005A6922F002025A61202383F3118805F179
:104B6000100001F09DFE05F118000121FEF7E8FF9D
:104B7000002383F31188D9E75841002078410020B1
:104B8000184BDA6A936810B513F00104936005D0EE
:104B900013F00C0F14BF4FF480340124D90506D54F
:104BA00013F4406F14BF44F4003444F00204DA03F9
:104BB00006D513F4402F14BF44F4802444F00404B9
:104BC000202383F31188084801F06AFE2146074834
:104BD000FEF7B6FF002383F31188BDE81040FEF70F
:104BE0004FBE00BF584100206041002074410020AA
:104BF00090F83420152A38B50BD80123934040F69D
:104C000041621A4004468AB913F4801502D19B020E
:104C100022D438BDC3689B695B68002BF9D1036C53
:104C200003B19847002384F8343038BD436D4168A0
:104C3000D3F800290D6842F40012C3F80029D3F814
:104C4000002B42F40012C3F8002B0DB10621A84737
:104C5000062384F8343038BD0B2380F83430202309
:104C600083F3118829462A462B46FEF7F9FB85F384
:104C7000118838BD000000000000000000000000A6
:104C800038B590F834300446152B21D8DFE803F00E
:104C90000B20202020200B2020213141202020200B
:104CA000202020200B0B436D4168D3F800290D68AC
:104CB00042F40012C3F80029D3F8002B42F400128A
:104CC000C3F8002B0DB10621A847062384F8343021
:104CD00038BD90F84B1090F84A30C26B43EA01237C
:104CE000934206D9C3681D8AB2FBF5F305FB132571
:104CF000B5B1142384F83430202383F311880021C4
:104D00000B4620460A46FEF7C3FB002383F31188B7
:104D100038BD036C03B19847002384F8343038BDA4
:104D2000202383F3118829462A462B46FEF798FB59
:104D300085F311880A2384F8343038BD0000000060
:104D400000EB8103F0B4DC6865692B68EB60F3B9B4
:104D5000406D00EB41134FF40022C3F81029236883
:104D600003F00303012B26D00BB200EB4313012405
:104D7000D3F8002942F00442C3F80029D0F83428BF
:104D800004FA01F31343C0F83438F0BC704719B388
:104D90005D1E43F00052406D268A00EB4117AB19AF
:104DA000B3FBF6F342EAC343C7F81039236803F0B4
:104DB0000303012BD8D1D0F8083813F4807F0BB24D
:104DC00000EB4314D4F8002914BF42F0805242F0A3
:104DD0000052C4F80029C8E7402BD9D940232B60E2
:104DE000014A3F25D7E700BF400000200000000037
:104DF00000EB810330B4DC68A2691368D36009B9A1
:104E0000402B22D8013B628A406D24681344B3FBD7
:104E1000F2F302FB03F20332DB0422F0030243F05D
:104E2000C043134300EB411504F00302012AC5F807
:104E3000103B0ED009B200EB411130BCD1F8003B61
:104E400043F00443C1F8003B7047402313603F2305
:104E5000D9E709B2D0F8083800EB411213F4807F8B
:104E6000D2F8003B14BF43F0805343F00053C2F824
:104E7000003BE0E700000000000000000000000030
:104E8000F0B5294F467A3D68012404FA06FE1EEA71
:104E9000050F44D1254C4EEA050504EBC60C15F070
:104EA000FF0F3D6044F83620CCF8043004D0204C8D
:104EB000236B43F40013236315F47F4F29D1056856
:104EC0002B6823F01F032B602B6813F00103FBD129
:104ED000077A44683D26BE40212726602B606F611B
:104EE000FAB1807A4209920000F1604502F1604215
:104EF00002F5614205F5614500F01F00090101243A
:104F00008440C9B285F80013C2F880411460184685
:104F1000F0BD074C236B43F480032363CFE72046A7
:104F2000F0BD1046F0BD00BF1C1400202C14002062
:104F300000380240000000000000000000000000F7
:104F400011F00C0F00D1704772B6024B024ADA62C0
:104F5000FEE700BF0430002090C8010800000000F8
:104F60001A4B1B4A9B69DFF874801A4E80B51A4FA2
:104F70009A6198F80030CBB93B7813B30024202510
:104F800040F6B830FFF704F8358340F6B830FEF746
:104F9000FFFF75833B780134A342F1DC4FF4FA50F4
:104FA000FEF7F6FF98F80030002BE5D0202434837C
:104FB00042F21070FEF7ECFF74833B78002BD8D0E0
:104FC000DCE740F6B830FEF7E3FFD2E7043000201C
:104FD0009CC8010800080240941C00200C3A0020E4
:104FE00008B5284B284A9B69284E294D9A61102400
:104FF0003378082B3BD8DFE803F02F25251A0F3A2A
:105000003A3A05002C83C820FEF7C2FF6C834CF2AD
:105010005030FEF7BDFFEBE72C834FF47A70FEF7BC
:10502000B7FF6C834FF47A70FEF7B2FFE0E72C8392
:1050300041F28830FEF7ACFF6C8341F28830FEF716
:10504000A7FFD5E72C83C820FEF7A2FF6C8344F6A8
:105050002060FEF79DFFCBE72C8340F6B830FEF7CB
:1050600097FF6C834FF47A70FEF792FFC0E72C83B2
:1050700041F28830FEF78CFF6C83C820FEF788FF72
:10508000B6E700BF04300020ACC80108610800206A
:1050900000080240000000000000000000000000C6
:1050A0002DE9F8434FF080452B699B0703D4BDE8F9
:1050B000F843FEF7E5BB00272F61202686F3118811
:1050C000DFF87890696AD9F81C30D9F828E09A6836
:1050D000CEEB0100904209F11C081CD31968DC6872
:1050E00072444145C9F82820C1F80480C9F81C1051
:1050F000DF6008BFEF6087F311881869A04786F367
:105100001188D9F81C30696AD9F828E09A68CEEB82
:1051100001008242E2D9434508D07244521A012A62
:1051200098BF02224FF080430A445A63002383F35E
:105130001188BDE8F843FEF7A3BB00BF0430002090
:10514000F8B52B4F7E69B2893488B388A4B240F297
:105150000F13234095B23BB37B681B694FF6FF6288
:105160003280B3B114F0080F0CBF00211021E20708
:1051700048BF41F00401A00748BF41F008016207A1
:1051800048BF41F02001E00548BF41F04001184808
:105190009847202383F3118816486FF00101FEF72A
:1051A000B7FD002383F3118862060FD56B060DD57A
:1051B0007A6825F0400352689BB24FF6BF71318088
:1051C000B3810AB10A4890473C7A1CB1BDE8F84067
:1051D000FEF756BB202383F3118807482146FEF7CC
:1051E00097FD84F31188BDE8F840FEF749BB00BF86
:1051F000AC140020B8140020BC14002000000000F3
:1052000011F00C0F2AD1026A1368196821F01F01EE
:1052100019601968C907FCD410B54368117A0446AF
:1052200050681A683D238B4002210360617092B17F
:10523000204690476378022B0DD0237A53B1202368
:1052400083F31188002104F11000FEF761FD0023B3
:1052500083F3118810BD00236370EEE772B6024B32
:10526000024ADA62FEE700BF0430002090C801085D
:1052700011F00C0F0CD1837870B504466BB94368FC
:10528000DB68002B2CD0818CBDE8704089B21847B8
:1052900072B6204B204ADA62FEE7C1690B681A68D1
:1052A00022F01F021A601A68D207FCD46268087ADA
:1052B0004E6895683D21814002203160A0709DB10B
:1052C0002046A847A378022B0BD0202383F3118814
:1052D000002104F10C00FEF71BFD002383F311886D
:1052E00070BDE36962681B68D168A26900290CBFC0
:1052F0004FF480714FF488710A430120002504F1B6
:105300002401A570D96058601A601A6802431A60B7
:10531000DBE700BF0430002090C801080000000057
:1053200011F00C0F38B532D1416A0B681A6822F0BF
:105330001F021A601A68D407FCD40D7A026A4C68FE
:1053400013683D21A9402160196821F01F011960EF
:105350001968C907FCD4436851680446107A1A6872
:105360003D2383400B60BAB104232370204690474D
:105370002378042B10D0202383F31188002104F11B
:105380000800FEF7C5FC002383F3118838BD72B610
:10539000034B044ADA62FEE702232370EBE700BF07
:1053A0000430002090C80108000000000000000048
:1053B000464B474A1B691178C3F30023994210B545
:1053C00003D02E20137003F073FC424C2368082B8B
:1053D00006D8DFE803F00774120E6D19575F6600F8
:1053E00000232360082003F063FC2368013323605B
:1053F00010BD394A1278022AF8D0102003F058FC68
:1054000023680133236010BD344A354B1268196894
:10541000914203D02C201A6003F04AFC314A324BEF
:1054200012681968914203D02B201A6003F040FCE7
:105430002E4A2F4B12681968914203D051201A60EE
:1054400003F036FC2B4A2C4B12681968914203D0AA
:1054500050201A6003F02CFC284A294B1268196866
:10546000914203D052201A6003F022FC254A264BB9
:1054700012681968914217D02D201A6003F018FCA9
:105480002368B3E7144A12780A2AAFD04FF0FF33EB
:10549000236010BD1D2003F00BFC23680133236043
:1054A00010BD292003F004FC23680133236010BDE4
:1054B0001A2003F0FDFB23680133236010BD0F2089
:1054C00003F0F6FB23680133236010BD000802409F
:1054D000601C0020641C002061080020103A00209D
:1054E000781C0020981C0020741C00209C1C0020AC
:1054F000681C0020083A00206C1C0020901C002032
:10550000801C0020582600207C1C00200000000089
:10551000F8B5A84C2378984200F093805A1E0E46A6
:10552000092A2BD8DFE802F0814A261D2A052A1D08
:105530002A2602281AD0042800F01181012879D1E6
:105540009D4B9E499E4A1E70002501230D601370DD
:105550000320237003F0ACFB092003F0A9FB01201A
:10556000F8BD082800F0CD80022865D1924A0223B8
:105570001670D4E00B285FD000285DD00C2800F214
:10558000C08001A252F820F0AD5701084155010832
:105590006D5501083D5701085F57010887570108FD
:1055A0008757010859550108035701080357010897
:1055B0005955010847560108595501080B2842D092
:1055C000062800F0E380042800F0C980052800F0D8
:1055D000DD8078BB7B4D2B7893B97B4A1278022A09
:1055E0000ED17A4A80202021137001F051FA012156
:1055F000402001F04DFA764A4021012351832B705F
:1056000074487549754A002303600B6013606A4A49
:1056100000231670237001F08BFF0A2003F048FB73
:10562000092003F045FB0120F8BD02289ED0042884
:1056300000F09580082864D0092003F039FB002091
:10564000F8BD0120F8BD5C4A0B231670237001F0F1
:105650006FFF634B634A596D4FF4805050838A6BE0
:1056600022F400228A63202282F311881A78586D6E
:10567000012A2CD09A6D0024976825464FF0FF36FA
:1056800000EB44120134BC42C2F800594FF0000153
:10569000C2F81059C2F80869C2F8005BC2F8105B82
:1056A000C2F8086BECD9504A504C19664FF00116FD
:1056B0000825C0F81C68C0F81C1881608163C2F816
:1056C000885082F84313626B22F0800262630024E8
:1056D00001225C60DC601C615C619C611A70FEF7F9
:1056E000D7F984F3118872B6BFF34F8F4049414B0D
:1056F000CA6802F4E0621343CB60BFF34F8F00BF70
:10570000FDE72D4D304B1B78032B03D0237813F08E
:10571000FD0F25D1294A2E70002108231160237026
:1057200001F006FF2F4B4FF480525A830A2003F0FA
:10573000BFFA092003F0BCFA0120F8BD002E3FF4A7
:105740000BAF1D4D274B2E7003214FF4805221705B
:105750001A8301F00DFF00287FF4FEAED2E7164D4C
:10576000174A164F2E704FF0000E01210423C7F880
:1057700000E011700320237003F09AFA092003F06F
:1057800097FA0120F8BD022B7FF4E6AE0A49154BCB
:1057900020704FF480520E701A8301F0C9FE164B30
:1057A00080221A830A2003F083FAD5E6002B3FF407
:1057B0002EAF0FE761080020040800209C0800209D
:1057C00060080020701C00206C08002000300020C1
:1057D00000080240841C002028080020201400201B
:1057E000E82C00200004024000E100E00038024004
:1057F00000ED00E00400FA05000002400000000097
:1058000038B50346A8B10B4C0B48216801229A40D9
:1058100000250A42056006D1084D0A430D202B7071
:10582000226003F045FA08200321BDE83840FFF765
:105830006FBE38BD582600209C080020941C002014
:105840002DE9F843984B4FF480522DED028B1A83CB
:1058500001F06EFE012003F073FA9449944A9FED23
:10586000958A00230D200B70136003F021FA2D2080
:1058700003F01EFA0A2404F0CBFD013C38EE008A46
:10588000F9D1F2EE047A88EE278A8B4E8B4DD6ED55
:10589000007A85ED008AB4EEE78AF1EE10FA5ED464
:1058A000874FD7ED007AB4EEE78AF1EE10FA5DDCAF
:1058B0009FED808A0A2404F073FD013C38EE008AD3
:1058C000F9D1F2EE047AC8EE277ADFF818820A24BA
:1058D0009FED788AC8ED007A04F02AFD013C38EE8D
:1058E000008AF9D1F2EE047A88EE278A754B6E4C65
:1058F0004FF48059082083ED008AA4F8189004F032
:10590000CFFC07EE900AF8EEE77A9FED6F6ADFEDC5
:105910006F6A77EEA77AB1EE027A67EE867A67EE63
:10592000A67AF4EEC77AF1EE10FA06D50C20BDEC9B
:10593000028BBDE8F843FFF763BFB1EE067AF4EEE1
:10594000C77AF1EE10FAF1DCD5ED007A97ED007A26
:10595000F4EEC77AF1EE10FA0FDD0820E7E7BDECB0
:10596000028B0220BDE8F843FFF74ABFBDEC028B73
:105970000820BDE8F843FFF743BF96ED007AF4EE48
:10598000C77AF1EE10FA01D50220D0E72369180595
:1059900017D59FED488A0A2404F002FD013C38EE39
:1059A000008AF9D1F2EE047A88EE278ADFED487A90
:1059B00088ED008AB4EEE78AF1EE10FA05DD0620E4
:1059C000B5E7A4F81A901420B1E701F021FE414890
:1059D0000521FEF7B5FA08B10D20A8E73E4D0324D6
:1059E0000120202101F054F80220202101F050F87C
:1059F0002021042001F04CF84FF47A70FEF7C8FA29
:105A00000120032101F044F80220032101F040F8B5
:105A10000420032101F03CF82E480521FEF790FAFE
:105A20000028D9D12B480521FEF78AFA0028D3D1C6
:105A30002A4B33F8022BA2F57A72B2F5FA6F22D80C
:105A4000AB42F6D1264B184E1C698022C4F3C01419
:105A50001A830A25336919054FF0640017D5FEF73C
:105A600097FA013DF6D11E4B8022D4B15A830E4BDA
:105A70001A69120510D5BDEC028B03200121BDE887
:105A8000F843FFF745BD013CAAD103204FE7144B73
:105A900080225A8312204AE74FF480525A831420FE
:105AA00045E71A83E3E700BF00040240941C00208E
:105AB0005826002000000000480800202C08002084
:105AC000000800207C26002033335340000080393A
:105AD000000096423C080020E62C0020E02C00202C
